:020000040000FA
:100000008020040000000000842000008820000000
:100010008C20000090200000942000009820000018
:100020009C200000A0200000A4200000A8200000C8
:10003000AC200000B0200000B4200000B820000078
:10004000BC200000C0200000C4200000C820000028
:10005000CC200000D0200000D4200000D8200000D8
:10006000DC200000E0200000E4200000E820000088
:10007000EC200000F0200000F4200000F820000038
:10008000FC200000002100000421000008210000E5
:100090000C21000010210000142100001821000094
:1000A0001C21000020210000242100002821000044
:1000B0002C210000302100003421000038210000F4
:1000C0003C210000402100004421000048210000A4
:1000D0004C21000050210000542100005821000054
:1000E0005C21000060210000642100006821000004
:1000F0006C210000702100007421000078210000B4
:100100007C21000080210000842100008821000063
:100110008C21000090210000942100009821000013
:100120009C210000A0210000A4210000A8210000C3
:10013000AC210000B0210000B4210000B821000073
:10014000BC210000C0210000C4210000C821000023
:10015000CC210000D0210000D4210000D8210000D3
:10016000DC210000E0210000E4210000E821000083
:10017000EC210000F0210000F4210000F821000033
:10018000FC210000002200000422000008220000E0
:100190000C2200001022000014220000182200008F
:1001A0001C2200002022000024220000282200003F
:1001B0002C220000302200003422000038220000EF
:10020000FFFFFFFFFFFFFFFF0000000000000000F6
:1002100000000000000000000000000000000000DE
:1002200000000000000000000000000000000000CE
:1002300000000000000000000000000000000000BE
:1002400000000000000000000000000000000000AE
:10025000000000000000000000000000000000009E
:10026000000000000000000000000000000000008E
:10027000000000000000000000000000000000007E
:10028000000000000000000000000000000000006E
:10029000000000000000000000000000000000005E
:1002A000000000000000000000000000000000004E
:1002B000000000000000000000000000000000003E
:1002C000000000000000000000000000000000002E
:1002D000000000000000000000000000000000001E
:1002E000000000000000000000000000000000000E
:1002F00000000000000000000000000000000000FE
:1003000000000000000000000000000000000000ED
:1003100000000000000000000000000000000000DD
:1003200000000000000000000000000000000000CD
:1003300000000000000000000000000000000000BD
:1003400000000000000000000000000000000000AD
:10035000000000000000000000000000000000009D
:10036000000000000000000000000000000000008D
:10037000000000000000000000000000000000007D
:10038000000000000000000000000000000000006D
:10039000000000000000000000000000000000005D
:1003A000000000000000000000000000000000004D
:1003B000000000000000000000000000000000003D
:1003C000000000000000000000000000000000002D
:1003D000000000000000000000000000000000001D
:1003E000000000000000000000000000000000000D
:1003F00000000000000000000000000000000000FD
:104100008022040000000000FAAB0400020000005E
:10411000FAAB040002000000023A040002000000B2
:10412000203A040002000000463A040002000000A9
:10413000FAAB040002000000FAAB04000200000029
:10414000FAAB040002000000FAAB04000200000019
:10415000FAAB040002000000FAAB04000200000009
:10416000FAAB04000200000086E204000000000038
:10417000FAAB040002000000FAAB040002000000E9
:10418000FAAB04000200000028E504000100000072
:10419000FAAB040002000000FAAB040002000000C9
:1041A0000CD9040000000000A8D8040000000000A2
:1041B000FAAB040002000000B4E2040000000000BA
:1041C000FAAB040002000000FAAB04000200000099
:1041D00032DF040000000000FAAB0400020000001F
:1041E000FAAB040002000000FAAB04000200000079
:1041F000FAAB040002000000FAAB04000200000069
:10420000FAAB040002000000FAAB04000200000058
:104210002CE5040001000000FAAB040002000000DD
:10422000BA4A040001000000FAAB040002000000DA
:10423000FAAB04000200000050DB040000000000A4
:10424000ECDA040000000000FAAB040002000000F9
:1042500082E2040000000000FAAB0400020000004B
:10426000FAAB040002000000FAAB040002000000F8
:10427000FAAB040002000000FAAB040002000000E8
:10428000FAAB040002000000FAAB040002000000D8
:10429000FAAB040002000000FAAB040002000000C8
:1042A000FAAB040002000000FAAB040002000000B8
:1042B000FAAB040002000000FAAB040002000000A8
:1042C000FAAB040002000000FAAB04000200000098
:1042D000FAAB040002000000FAAB04000200000088
:1042E000FAAB040002000000FAAB04000200000078
:1042F000FAAB040002000000FAAB04000200000068
:10430000FAAB040002000000FAAB04000200000057
:10431000FAAB040002000000FAAB04000200000047
:10432000FAAB040002000000FAAB04000200000037
:10433000FAAB040002000000FAAB04000200000027
:10434000FAAB040002000000FAAB04000200000017
:10435000FAAB040002000000FAAB04000200000007
:10436000FAAB040002000000FAAB040002000000F7
:10437000FAAB040002000000FAAB040002000000E7
:10438000FAAB040002000000FAAB040002000000D7
:10439000FAAB040002000000FAAB040002000000C7
:1043A000FAAB040002000000FAAB040002000000B7
:1043B000FAAB040002000000FAAB040002000000A7
:1043C000FAAB040002000000FAAB04000200000097
:1043D000FAAB040002000000FAAB04000200000087
:1043E000FAAB040002000000FAAB04000200000077
:1043F000FAAB040002000000FAAB04000200000067
:10440000FAAB040002000000FAAB04000200000056
:10441000FAAB040002000000FAAB04000200000046
:10442000FAAB040002000000FAAB04000200000036
:10443000FAAB040002000000FAAB04000200000026
:10444000FAAB040002000000FAAB04000200000016
:10445000FAAB040002000000FAAB04000200000006
:10446000FAAB040002000000FAAB040002000000F6
:10447000FAAB040002000000FAAB040002000000E6
:10448000FAAB040002000000FAAB040002000000D6
:10449000FAAB040002000000FAAB040002000000C6
:1044A000FAAB040002000000FAAB040002000000B6
:1044B000FAAB040002000000FAAB040002000000A6
:1044C000FAAB040002000000FAAB04000200000096
:1044D000FAAB040002000000FAAB04000200000086
:1044E000FAAB040002000000FAAB04000200000076
:1044F000FAAB040002000000FFFFFFFFFFFFFFFF19
:104500004FE123000E7724000E0188000000000018
:104510000C00070060812C00110020001100070032
:10452000000020000000E000020032000000020055
:1045300000000000640C0200020000000040DA00ED
:104540000000FE004440A900402621000000E000D9
:104550000300320000002000A00188004440A800B1
:104560000000060091018800800078000000EB0048
:1045700015003700E280400032A0B4009101BA007B
:10458000E280400032A0B4009102BA00E280400014
:1045900032A0B4000002EB00472BDE00F507B200AA
:1045A000602CE10004003A000059EB008301E900AF
:1045B000FDFF3E00040037006128E10001003200E9
:1045C0000082EB00040007001101BA000200E000C5
:1045D000E8FF3A00000006003159BA008301E90003
:1045E0000C0032002159BA008301E90008003200B2
:1045F0000400E00003003A00E280400032A0B40072
:10460000F5FF370011D9BA008301E900FAFF3A003B
:104610008100E800E180400032A0B4000000060004
:104620005820040002000000B62004000200000030
:104630009420040002000000E220040002000000B8
:1046400014210400020000009C200400020000006D
:10465000F6200400020000007221040002000000A5
:10466000D621040002000000142204000200000011
:104670005822040002000000602004000200000034
:104680005CE404000100000066E404000100000096
:10469000D00A0400020000003A9404000000000068
:1046A0006694040000000000CA0B04000100000032
:1046B0007A950400000000009E95040000000000B0
:1046C000EC96040000000000140C0400010000003F
:1046D000B6CF040001000000929704000000000023
:1046E000BC970400000000008E0B040001000000D5
:1046F0004899040000000000E600040001000000EA
:10470000A699040000000000FE99040000000000CB
:104710001804040001000000243C04000200000012
:104720007E9A04000000000046A60400000000007D
:104730004A01040001000000F89A04000000000093
:10474000E09B0400000000008C9C040000000000BE
:104750005E9B0400000000001E9D0400000000009D
:104760007E9E040000000000C29E040000000000C5
:10477000669F040000000000AC9D040000000000E3
:10478000689D040000000000089E04000000000076
:104790002C9F0400000000007C01040001000000C8
:1047A0009E9F040000000000E89F0400000000003D
:1047B00046A10400000000002EA00400000000003C
:1047C000B408040001000000B2A0040000000000D2
:1047D00008A2040000000000FEA204000000000087
:1047E0007AA30400000000008E070400010000000E
:1047F000F2A3040000000000ECA40400000000008C
:104800008206040001000000BEA5040000000000B4
:104810004A0504000100000040A704000000000059
:10482000B0A6040000000000BEA7040000000000C5
:10483000040604000100000076A804000000000047
:10484000D2A804000000000030A90400000000000D
:10485000A8310400020000009A31040002000000A8
:104860008A31040002000000CC3104000200000084
:104870009231040002000000B03204000200000087
:1048800006230400020000001C23040002000000B4
:104890002C23040002000000042404000200000095
:1048A0008623040002000000AC2304000200000084
:1048B0002A24040002000000762404000200000004
:1048C00094240400020000006C1B0400020000009D
:1048D000821B0400020000009E1C04000200000075
:1048E000AA1B040002000000D21B0400020000000A
:1048F000281C040002000000461C04000200000006
:10490000C41C0400020000001A1D04000200000084
:10491000381D040002000000769D04000100000024
:10492000C4E604000100000062EA04000100000087
:104930008AEA040001000000CCE604000100000047
:10494000E8EA040001000000EEEB040001000000B2
:10495000B0EB04000100000010E3040000000000C0
:1049600042EB04000100000048EC040001000000DC
:104970005CFB040000000000A0FB0400000000003D
:10498000DCFB04000000000018FC04000000000034
:1049900054FC04000000000090FC04000000000033
:1049A000CCFC04000000000008FD04000000000032
:1049B00086FD0400000000002EFE04000000000040
:1049C000D6FE04000000000082FF0400000000008A
:1049D0004200040001000000C49804000000000030
:1049E0009A9F0400000000009A04040001000000E7
:1049F00056A504000000000088A404000000000088
:104A00006A0B040001000000DA0A04000100000043
:104A1000420A040001000000E00904000100000057
:104A20007A0004000100000010FD040000000000F6
:104A3000D4FC04000000000098FC0400000000000A
:104A40005CFC04000000000020FC040000000000EA
:104A5000E4FB040000000000A8FB040000000000CC
:104A600066FB0400000000001EBA04000100000004
:104A70005CBA040001000000A8BA040001000000B4
:104A80002ADC0400010000001CBB0400010000003F
:104A9000D2BB04000100000078E004000100000027
:104AA00068DD040001000000B2BB0400010000004A
:104AB0001EBC0400010000005EBD040001000000F7
:104AC000DEBC04000100000000E004000100000062
:104AD00038BE0400010000009CBE0400010000007C
:104AE000D6BF040001000000CABD040001000000A0
:104AF000D6BE04000100000056BF04000100000003
:104B0000C6C004000100000054C004000100000001
:104B100010C00400010000007AE004000000000062
:104B2000D22B040002000000C22B0400020000008F
:104B3000062C0400020000003A2C040002000000D1
:104B4000682C040002000000CA2B040002000000D0
:104B5000942C040002000000D42C04000200000089
:104B6000FC04040002000000D40404000200000061
:104B7000C404040002000000D40604000200000087
:104B80005805040002000000CC04040002000000EC
:104B9000D4050400020000006407040002000000C5
:104BA00038050400020000007CA0040001000000A1
:104BB00018A1040001000000FAA104000100000097
:104BC000A8A10400010000005CA204000100000094
:104BD00058A50400010000006CA2040001000000C0
:104BE000BEA20400010000006CA40400010000004B
:104BF00042A304000100000096A40400010000008C
:104C000088A50400010000005CA904000100000068
:104C1000702F040002000000603004000200000059
:104C200016100400020000004411040002000000FD
:104C300062110400020000008A110400020000005A
:104C40001E10040002000000D21504000200000043
:104C5000C215040002000000F0150400020000006C
:104C60001616040002000000CA150400020000002D
:104C7000E4170400020000006E17040002000000A8
:104C80000617040002000000443D0400020000007A
:104C9000AECF04000100000084D304000100000036
:104CA000B26004000000000022D2040001000000F5
:104CB00012830400000000003283040000000000A2
:104CC0004A8304000000000080830400000000000C
:104CD000D4830400000000001684040000000000DB
:104CE0002884040000000000768404000000000016
:104CF000B6840400000000001E86040000000000CE
:104D00008A86040000000000CA860400000000003B
:104D10008687040000000000EA870400000000000D
:104D20001688040000000000F88504000000000060
:104D3000E485040000000000FE880400000000007C
:104D4000D085040000000000F2880400000000008C
:104D50000A890400000000004492040000000000E2
:104D6000AA89040000000000E68904000000000099
:104D70002A8A040000000000828A0400000000006B
:104D8000968A040000000000648204000000000015
:104D90008849040000000000C4490400000000002D
:104DA000764A040000000000C84A04000000000029
:104DB00002F0040000000000364A04000000000079
:104DC0007E4B040000000000FA4A040000000000CE
:104DD000464B040000000000BA4B04000000000035
:104DE000404C0400000000008C4C04000000000057
:104DF000024D04000000000062F00400000000000A
:104E0000B2F0040000000000844D04000000000027
:104E1000BC4D040000000000EC4D04000000000048
:104E200048F10400000000009E4E04000000000055
:104E3000CE4E040000000000164F040000000000E9
:104E4000CA4F040000000000804F04000000000072
:104E50008C4F040000000000FE4F04000000000022
:104E6000E6500400000000007CEF04000000000099
:104E70001E52040000000000DE510400000000008B
:104E8000B0510400000000003A540400000000008B
:104E9000AC61040000000000D653040000000000D4
:104EA000B055040000000000E254040000000000BF
:104EB0000A550400000000004255040000000000F4
:104EC0002C56040000000000866204000000000070
:104ED000F6F20400000000003C580400000000004E
:104EE0008658040000000000BA58040000000000CA
:104EF000EE58040000000000465A040000000000C4
:104F00008259040000000000F6590400000000006F
:104F1000A4F7040000000000DE5A040000000000B6
:104F2000945C040000000000D65D04000000000056
:104F30001C5E040000000000745E0400000000001D
:104F40003A5D0400000000005E490400000000001B
:104F50004C5F04000000000058EE04000000000058
:104F6000D4F80400000000006861040000000000A4
:104F70002258040000000000CC570400000000008C
:104F8000045104000000000050E90400000000008B
:104F90008AED040000000000DAEC040000000000CC
:104FA000E25F04000000000040EE0400000000008A
:104FB0009AEE04000000000018EF0400000000005A
:104FC0005EEF040000000000FCF0040000000000A0
:104FD0003EF3040000000000D4F7040000000000CD
:104FE000CCF8040000000000A6F804000000000057
:104FF00044FA040000000000DCF704000000000098
:1050000046F304000000000004F10400000000006A
:105010002CEF040000000000A2ED040000000000DE
:105020005AE904000000000030AD04000100000057
:1050300088E30400010000008CE30400010000008C
:105040008CE20400010000009AE20400010000006C
:10505000D8AB040000000000ECAB0400000000002E
:1050600070AC040000000000D8BD04000000000087
:10507000EAB40400000000001EB4040000000000B8
:10508000E0AB0400000000009EC00400000000002F
:105090006AC10400000000009EB704000000000088
:1050A000BAB90400000000004ABB04000000000080
:1050B00098AC04000000000004ED040001000000B2
:1050C000E0EC040001000000D0EC0400010000004E
:1050D0003AEF0400010000002EED04000100000082
:1050E000D8EC0400010000000AF1040001000000F7
:1050F00086ED0400010000001EF104000100000024
:1051000048EE040001000000DCEE04000100000095
:105110007AEE0400010000007CEF040001000000B2
:105120000466040001000000A865040001000000FE
:105130009865040001000000BE6804000100000042
:10514000FA68040001000000BE71040001000000C4
:10515000A0650400010000001E6E040001000000B4
:105160006C66040001000000226F040001000000D2
:10517000E4710400010000009466040001000000D6
:10518000086B040001000000F66704000100000045
:10519000D2660400010000002E6704000100000038
:1051A0002266040001000000383C040001000000F9
:1051B000B63D040001000000E440040001000000CE
:1051C00066410400010000003A43040001000000B1
:1051D0002E45040001000000F64604000100000016
:1051E000DE29040002000000BA29040002000000C9
:1051F000122A040002000000462A040002000000F7
:10520000742A040002000000C22904000200000009
:10521000A02A040002000000E02A040002000000AE
:10522000CA72040001000000A8720400010000001E
:105230009672040001000000BE7D04000100000021
:10524000C87C040001000000467904000100000051
:105250009E7204000100000054730400010000006D
:10526000627B040001000000687A04000100000075
:10527000AC79040001000000FA7B0400010000008A
:10528000DC1D040002000000241E040002000000D7
:105290006ED604000100000018D7040001000000D1
:1052A0005ED90400010000002A2004000200000072
:1052B000D6D7040001000000041F04000200000013
:1052C000D81F040002000000E61D040002000000D8
:1052D00024D5040001000000B6D60400010000003F
:1052E000D8D504000100000050D7040001000000E0
:1052F000F0D80400010000000AD8040001000000FA
:10530000CC75040000000000D4750400000000000B
:1053100040580400010000003E5804000100000055
:10532000D0750400000000000AC204000100000063
:105330008EC10400010000007EC1040001000000D5
:10534000B2C104000100000040C2040001000000DE
:1053500086C10400010000007AC2040001000000C0
:10536000BEC5040001000000DAC204000100000014
:10537000DCC5040001000000D4C3040001000000EB
:105380009AC30400010000000EC4040001000000E4
:105390004A00040002000000420104000200000074
:1053A0007401040002000000100304000200000069
:1053B0009201040002000000E80104000200000065
:1053C00052000400020000004E020400020000002F
:1053D0006203040002000000C80304000200000091
:1053E000F8F6040001000000DE0D040001000000DA
:1053F0003A1004000100000060F804000100000001
:105400003219040001000000A4160400010000008D
:1054100024FB040001000000C4F9040001000000A6
:10542000001504000100000072FB040001000000F0
:1054300096F704000100000002F7040001000000DC
:10544000C00E0400010000006C1104000100000007
:105450008C15040001000000021604000100000089
:105460006418040001000000B41A040001000000E8
:10547000261A040001000000921B04000100000035
:1054800092800400010000002E830400010000004F
:105490007A8004000100000058830400010000002D
:1054A0008A80040001000000B87E040001000000B2
:1054B0007886040001000000C280040001000000A2
:1054C0008681040001000000E88304000100000060
:1054D00094840400010000004485040001000000E1
:1054E000DA850400010000001281040001000000C0
:1054F00050870400010000008280040001000000C9
:10550000F687040001000000CC88040001000000C0
:105510004A89040000000000DE8204000000000050
:105520009E0D040002000000C00C040002000000F8
:10553000C80C040002000000D00D040002000000AE
:10554000E40D0400020000009E0E040002000000B2
:10555000663D040002000000703D040002000000EF
:105560008613040002000000F41204000200000090
:10557000DC13040002000000C2140400020000005A
:105580001A15040002000000583804000200000050
:105590004238040002000000383904000200000014
:1055A000223904000200000062C304000000000071
:1055B00092C3040000000000B0C30400000000001B
:1055C000E2C30400000000008AD4040000000000D0
:1055D00006CB04000000000098C804000000000092
:1055E00062CA04000000000042C80400000000007D
:1055F000E6CB0400000000004AC4040000000000E4
:10560000C2D004000000000056C9040000000000E1
:105610008CC40400000000005ED104000000000003
:1056200038CC0400000000009ACD04000000000007
:1056300094CE040000000000E4C704000000000055
:10564000DE8D0400010000003A8A04000100000021
:10565000C48B040001000000E28A04000100000085
:10566000168B0400010000004C8B040001000000B8
:10567000CA920400010000005091040001000000E3
:105680000690040001000000868A0400010000006A
:105690004A8A040001000000B21D0400010000005D
:1056A000F822040001000000561D04000100000063
:1056B00078220400010000007421040001000000B1
:1056C0005E1D040001000000020AB900001BB900C1
:1056D0000200B80081004200810043000000060083
:1056E0000A00FA0080017800E20F500028003E0016
:1056F00090F08100E10F500008003200802320006C
:105700000000E000050032000423200025232000D3
:105710004623200080017800040037000422200086
:1057200025222000462220008322200014409000E1
:105730000004E000040035008009EB0014409000F4
:105740000074A00010429800154090000028A300AB
:1057500003003A00154090000024A00090429800F9
:105760008001EB0007003700154090000008A300FF
:10577000FDFF320063C078000000FB00000B7800E2
:105780008301E800828F5100F7FF3A0008003700DC
:1057900030002000B0BF9F00C3BF9F00D1BF9F005B
:1057A000E2BF9F006A80570000C0DA006FB997001F
:1057B000020078000080FA0000000600839F680065
:1057C0000100E00002003D0060001000E0801800D1
:1057D0000300E00002003D0060011100E0811900BB
:1057E000140007004F00E00002003B0060001000C2
:1057F000E080180000000600811F78000100E00032
:1058000002003D0060001000E08018000300E0008E
:1058100002003D0060011100E08119001500070041
:105820004F00E00002003B0060001000E080180024
:10583000000006006022B800060220000000D00030
:105840008180D2000482D2008582D2000000A000B4
:105850000202520083825A00030031000202420019
:1058600083824A000000A1000603E900F3FF3A002A
:1058700000000600EFFF07000400BE000000060065
:10588000881F7800000478005001BE004000BE0070
:1058900004004000858048000601490087814900D6
:1058A000009CBE000294BE000400E1000588E100F7
:1058B0000690E1000798E100020031006800440012
:1058C0001008E8004F04780000000600F487470045
:1058D000889FBE008A9FBE008C9FBE008E1F7800EE
:1058E0000205BE000004BE00D4B79F00E5B79F00CC
:1058F000F6B79F0087BF9F000000EB00C0B79F0076
:10590000B0B79F00A0B79F0090B79F0080B79F00DF
:105910000D042000BFB097004FB097000001400079
:105920000000E0000F003D004F08DE0000007100A5
:10593000C0B79F009E00070001003D00120020003C
:10594000A100070001003D0012002000A600070092
:10595000B1000700B60007000F004000C8FF0700B5
:10596000220037004F08DE0000067100CCB79F0010
:105970008F00070001003D00120020009200070088
:1059800001003D001200200097000700A200070060
:105990000FB297009FB297002FB39700BFB3970045
:1059A000A90007000000520081805A0002015B003C
:1059B00083815B0080B79F0091B79F00A2B79F00D3
:1059C000B3B79F000007EB009F0007000020E10035
:1059D00001A8E10002B0E10003B8E10001003100DC
:1059E0001E0020000E005600C0B79F004FB2970067
:1059F0000400E00007003500100020000100200036
:105A00006011B80008047000898470000A057100F4
:105A10008B8571008D06E900BEFF3A000400E000AE
:105A200003003D00820007000F00400094FF0700C4
:105A30004FA897000000E00004003A000FB4970060
:105A40009FB497002FB59700BFB59700940007004B
:105A50004F0778004F06BE004F05BE004F04BE0042
:105A60004F01B10000000600881F780018002000D8
:105A7000881F780095FF07008F87E9004F047800A2
:105A800000000600801FEB0090FF07008F87E900F1
:105A900000000600889FBE008A9FBE008C1F780011
:105AA0006E00070007003D0073000700E00F5B0079
:105AB000E08F5B0007003D00320007000006EB00AE
:105AC000040037003400070002003D002A000700F0
:105AD0001C00200072000700E3FF07000203BE0065
:105AE0000002BE000C00E0000100320022000700AE
:105AF0000400BE000601BE004F0678004F05BE0040
:105B00004F04BE0000000600889FBE008A9FBE00B2
:105B10008C1F78005100070005003D00560007006B
:105B2000E00F5B00E08F5B0006003D0004003700E3
:105B30001900070003003D006000B8006011B800C4
:105B40001000070056000700CEFF07000203BE004A
:105B50000002BE000C00E000010032000600070059
:105B60000400BE000601BE004F0678004F05BE00CF
:105B70004F04BE00000006006000B8006011B800CD
:105B800000003700040250008582580006035900C7
:105B900087835900000006000006EB00E00F52006A
:105BA000E08F5A00E00F5B00E08F5B000000060012
:105BB0000180400090B79F000001EB008FB097007C
:105BC0000100E000000006000200700090B79F0096
:105BD0000180400080B79F000001EB00FFA8970004
:105BE0000100E000000006000200700080B79F0086
:105BF000018040006FAA9700CF20DE0001007000F6
:105C0000F0AF9F0004024200250007004F18DE009D
:105C10000002720000000600E4AF9F000804440088
:105C200089844C000A054D008B854D00000006005C
:105C30003FB29700CFB297005FB39700EFB39700E2
:105C400000FE2F00000006003FB09700CFB0970085
:105C50005FB19700EFB19700000006000205BE009B
:105C60000004BE00E00F5000E08F5800E00F590024
:105C7000E08F5900000006006000B8006011B80015
:105C800008045000898458000A0559008B85590082
:105C90001C002000E00F5200E08F5A0000000600B8
:105CA0000800BE000A01BE00000006008001EB00F3
:105CB00002003700817178008301E800828F510073
:105CC000FCFF3A000000060000027800808F5000C0
:105CD0000A00310082814000808F510007003600A9
:105CE000020240008000EB00436278008100E8007F
:105CF000828F500007003200FBFF37000200E000F7
:105D00000400320002814000315A7800828F500036
:105D1000FDFF3A0000000600800078003004E0003B
:105D2000FEFF3A00010050000000E90000000600FC
:105D30008001EB00040037008301E80090CF1000E1
:105D4000040032000000E800828F5100FAFF3A00A0
:105D50000000EB00000006008001780000017800E0
:105D600031407800005978000004E000FCFF3A0060
:105D70000300780000000600800178000001780030
:105D8000010037000201E8001204E000FDFF3A00C4
:105D900031407800005978000004E000FCFF3A0030
:105DA000030078000000060010417800B141510066
:105DB00003003A000000E8000204E000FAFF3A00A5
:105DC0000300FB00000006008001EB00020037002A
:105DD00061F079008301E800828F5100FCFF3A00F6
:105DE000000006000400FA00E0BF9F00E4815700B5
:105DF000812978000002EB000F0037006FB8970090
:105E0000904078007FB89700104078000402E800C6
:105E100080CF5000040032008180FB000080FB0036
:105E200000805000070037006FB897000000E800BE
:105E3000E0BF9F009309E800820F5200EFFF3A0095
:105E40000000EB000080FA00000006000C00FA00E1
:105E5000889FBE0000047800CFB09700F0FF2700B5
:105E6000D0BF9F008004EB0099BF9F0088BF9F00B8
:105E7000A8BF9F00200C2000B0BF9F007881570072
:105E800070805700620007000FB89700094878003B
:105E90000FB8970008045000080078004F04BE00B7
:105EA0000080FA0000000600889FBE000004BE00CB
:105EB0000D0037000900780097FF07000001780007
:105EC0000800BE00070307000000E00002003A00DF
:105ED00008007800090037009900FB000800E8007E
:105EE00008000700000478000800E000020032000B
:105EF0001804E000EFFF3A000000EB004F04BE0082
:105F00000000060010417800814F5100040032006B
:105F10000000E8000204E000FAFF3A000000EB0095
:105F2000000006000003780080027800020278007A
:105F30008001EB00080037000402E90063C078002C
:105F4000805A78008301E8000004E00002003A0073
:105F50008000EB0006003700828F5100F6FF3A0008
:105F6000FBFF37000040EB0080F07A008100E80082
:105F7000848F5000FBFF3A00060078000000060006
:105F80000001780000C2B300010037000201E80000
:105F90009240780080CF5000FCFF3200E9CF5000E3
:105FA000FAFF3200D0C2B30080CF500003003A00A5
:105FB0000201E80014C0B300050037000042EB0006
:105FC000B0C2B30080CF500001003A000201E800E7
:105FD0008000EB0005FD2F00040037006A08B900BF
:105FE00000804100850040000201E8009201FB00B2
:105FF00005804100E90F5000F8FF36000404E0007E
:10600000010032008100EA00010078000000060073
:10601000FE874700889FBE008A9FBE008C9FBE00FF
:106020008E1F7800F0B79F000107780082BF9F00A5
:106030000000EB00A0B79F009F0237008006EB0036
:1060400050C2B30080CF5000090032000100FB00B5
:10605000FFB09700B4020700E10F40009602320043
:10606000AFB097008100E800A1B79F00920237000F
:106070009E407800D0C2B30080CF50000C003200A8
:1060800007003C006D40500080CF50000A003200F5
:106090006B40400080CF50000E003A0008003700EF
:1060A00000C3B30080CF50000A003A00060037005A
:1060B0000D30A000050037000D00A00003003700E0
:1060C0000D10A000010037000D20A0000E07E80011
:1060D000E7FF37000D18A300010032000D00A100FA
:1060E0000D38A300010032000D20A1000100FB00CB
:1060F00002FD2F0002004000E90F50000E003E009C
:106100000002EB00C4B79F0082017800CFB2970075
:106110006A28B9001E01FB00000141000301410093
:10612000C2B79F005E00FB0003004000E90F500073
:106130000B003E00F5FF37000006EB00CCB79F00D8
:10614000A0C2B30080CF500005003A000FB89700FE
:10615000C000780080BF9F00C1B79F000E07E80015
:106160000001EB00B2B79F00E0C2B3009E4F1000E9
:1061700018003A000DE0A0008E00E80064405000D6
:10618000914F100002003200010778000C00370028
:106190000FBA9700C402780084BF9F00B5B79F0074
:1061A0000E87E8000B0037003FB697006A60B90021
:1061B0000000410003004000B0B79F000E07E80058
:1061C0001E01FB0003FD2F0003004100E90F5000FA
:1061D000F5FF3600BE407800E1D79F00C0C6B3008F
:1061E00080CF5000220032000F003C006940500078
:1061F00080CF50007700320004003C000104E00032
:10620000310232006B4050000F00370040C6B3002F
:1062100080CF5000930032006540400080CF500096
:106220008B003A008F00370030C7B30080CF50009A
:106230001A00320007003C006440500080CF50003C
:10624000110032000040E80080CF500080003A008A
:106250000F00370050C7B30080CF500080003200DD
:106260006340400080CF500079003A0009003700B9
:10627000000028000D48A30001003A0000012000A2
:1062800080867600D3FF37000D60A00075003700D0
:106290000D50A0000D70A000720037008FB897005D
:1062A0004100780081BF9F00000478000000E000FA
:1062B00001003A0068B423008004EB0001003700BD
:1062C0008104E80089007800088044001004E000A0
:1062D000FBFF3A003FB197000200E00003003200EC
:1062E000890F510001003100820478000002EB00A8
:1062F000E4AF9F00CFB29700898F520002003600B2
:1063000009805200E0AF9F004368DE00E1066000B4
:106310001B003A000D06780009003700FFB0970017
:106320000002200000020700E10F400003003200DD
:106330002FB097000000E800A0B79F000C06E8000F
:10634000EFA89700810F5600F4FF3A000081EB00A0
:10635000E2AF9F000A003700880078003100FB00A0
:1063600001047800FFB09700EF010700E10F400043
:10637000030032002FB297000402E800A4B79F0088
:106380000900E90080047800E10F4000F2FF3A00C4
:106390000006EB000D00E0000A003A00C6013700DD
:1063A000FFB0970000022000DF010700E10F40006E
:1063B00003003200AFB297008502E800A5B79F0046
:1063C0000C06E8006FA89700800F5600F4FF3A0013
:1063D000B90137008FB897004100780081BF9F0056
:1063E000CF80DE0001017800820178000205BE0046
:1063F0000004BE000203BE000002BE004822DE0010
:10640000482EDD0004027600E4D79F000D48A3006B
:106410000A0032000404E00008003200E14F4200AC
:106420000600320071FD2F0001804700044878000B
:10643000184098002900200002003700F0D79F0084
:106440001900200072FD2F0002844700A1FF3700D1
:1064500064FD2F0004844700190020009DFF3700D1
:106460000D0CB3000D007800000CB20028003A00BB
:106470000D00E00005003D008FBA97004505BE0005
:106480004504BE0085BF9F00140037000D48A300DF
:106490000B0032000FBE97004C00BE008CBF9F0067
:1064A0004F89DE00CF91DE000002BE0002037800BB
:1064B000820378000605BE000404BE000700370012
:1064C0008FB897004100780081BF9F0000047800DA
:1064D000CFC4DE00090578008A057800E00F54007B
:1064E000E08F5C00E00F5D00E08F5D001F003D006D
:1064F0003D00B3006000B8006011B800080450000F
:10650000898458000A0559008B8559001700370007
:106510000D00E00005003D000FB997004205BE00E8
:106520004204BE0082BF9F00100037000D48A30048
:10653000070032000FBA97004400BE0084BF9F00DE
:106540006011B8000205BE000004BE00070037005D
:106550008FBA97004500780085BF9F00000478003F
:10656000090020000A0020000B0020003FB6970021
:106570000C00E00007003A00E00F5400E08F5C00E0
:10658000E00F5D00E08F5D0002003A001000200087
:10659000B0B79F008D007800010CB200E1B79F00FA
:1065A00000042000808F50003000320003003C00C7
:1065B0000100E00008003200400037000008200021
:1065C0006FB19700800F510014003200000C2000C2
:1065D000800F510039003A0014C0B300A5742300A5
:1065E0000B0037000400FB004300DD000500400005
:1065F0005001BE004000BE000040E10001C8E100C3
:1066000002D0E10003D8E1002B0039000442E80089
:10661000F44F5200F3FF3A0027003700000120003A
:10662000010020006011B80014C0B3000040E10078
:1066300001C8E10002D0E10003D8E1001E003900EA
:10664000450020000000D0008180D2000281D200ED
:106650008381D2008502E900FAFF3A000442E80093
:10666000F04F5200F1FF3A00130037008000200085
:10667000010020006011B80014C0B3000040E10028
:1066800001C8E10002D0E10003D8E1000A003900AE
:106690003C0020000000D0008180D2000281D200A6
:1066A0008381D2000C06E900FAFF3A000442E800B8
:1066B000F54F5200F1FF3A00E4D79F00EFD097006A
:1066C0000100FB003FB19700820F500002003D0027
:1066D000E2D79F00040037003FB29700800F5200BE
:1066E00001003D00B0B79F00CFB297000500E00069
:1066F0000400320063806600020032008502E90077
:10670000C5B79F000DE8A3000B0032004FB69700FD
:106710003FB09700800F560003003C008000EB0064
:10672000C1B79F00040037004FB197003FB29700F8
:1067300004015100C2B79F00EFD297000500FB0093
:106740000006EB00DCAF9F00CFB09700808F5000B9
:106750000200340000805000D0AF9F000D28A3003D
:1067600037003200E18066000D18A3000C003200F3
:10677000D00220000100E00001003A000080E900A2
:10678000FFB09700E8000700E10F40000E00320064
:106790002FB197000201E800A2B79F000A0037005E
:1067A0000100E00008003200FFB097000002200066
:1067B000DD000700E10F4000030032002FB2970018
:1067C0000402E800A4B79F00DFAA97000500E000DC
:1067D0000F0032000006EB00FFB09700000320001E
:1067E000D1000700E10F4000030032002FB09700F6
:1067F0000000E800A0B79F000C06E800DFA89700A3
:10680000810F5600F4FF3A000001EB00D2AF9F0069
:106810003FB29700C320DD00207423008080400039
:1068200091B79F004220DD006400500080B79F00B8
:106830006320B900F0AF9F0063065000840037006A
:10684000DFAA97000500E0001100320068806600B2
:106850000F003A0000067800FFB097000002200009
:10686000B1000700E10F4000030032002FB0970095
:106870000000E800A0B79F000C06E800DFA8970022
:10688000810F5600F4FF3A000001EB00D2AF9F00E9
:10689000E18066000D18A3000C003200D002200039
:1068A0000100E00001003A000080E900FFB097001D
:1068B0009D000700E10F4000D5FF32002FB2970086
:1068C0000402E800A4B79F00D1FF37000100E000F8
:1068D000CFFF3200FFB097000002200092000700B7
:1068E000E10F4000CAFF3200AFB297008502E80016
:1068F000A5B79F00C6FF370000042000EFB0970047
:10690000808F50003100320003003C000100E000A5
:10691000080032003E003700000820006FB19700E9
:10692000800F510011003200000C2000800F510038
:1069300037003A001FB097003002BE002003BE00AF
:106940000800BE000A01BE0047FC0700A4002000AA
:10695000050020006033B8004AFC070004C3B30000
:1069600004424000E4D79F0029003700D5B423003B
:10697000D5B79F000D58A30002003A00E0B52300F0
:10698000D0B79F0014002000050020006033B8003D
:106990008FB097008100E900050033000402D000A9
:1069A0008582D2000683D2008783D200F9FF3700A8
:1069B0000800BE000A01BE002BFC07006F0060004B
:1069C0005FB197006240780010003700140020008B
:1069D000050020006033B8000C0078000000E900DA
:1069E000050033000402D0008582D2000683D20065
:1069F0008783D200F9FF37000800BE000A01BE00FD
:106A000019FC0700674060000043B000E0D79F001A
:106A1000EFD097000100FB00FFB097004200070095
:106A2000E10F4000030032002FB197000201E8009F
:106A3000A2B79F001FB297006802520094B79F0050
:106A40008FB29700E482520085B79F00630656001C
:106A5000D0FF2F003FB197000090B9007FAA9700A8
:106A60000000420063005000800F5600A2FF3A0071
:106A70000D38A30010003200DFAA97000500E000E7
:106A80000D0034000006EB00FFB09700000220006C
:106A900025000700E10F4000030032002FB09700EF
:106AA0000000E800A0B79F000C06E800DFA89700F0
:106AB000810F5600F4FF3A00BE407800E1D79F00F6
:106AC0000104E0005DFD3A002FB097004F07780009
:106AD0004F06BE004F05BE004F04BE00EF01B100DF
:106AE00000000600810178000002EB000B00370077
:106AF000E44078000104E000030032000402E800F2
:106B000093CF5000040032008180FB001380FB0013
:106B100000805000000006008301E800820F520050
:106B2000F3FF3A0000000500889FBE0000017800D6
:106B300001047800B10090000118A3003D0032006C
:106B40000198A30003003A00180090000000E00044
:106B500038003A000190A0003104980082047800C7
:106B6000F90FB200180090000000E00002003A00A7
:106B700028009000000C7800EA8F540006003A00CC
:106B8000380090000078A30003003A0088007800E5
:106B9000D0002000E4FF070098009000580090000B
:106BA000808F50000B0032000100E80010049800B4
:106BB0001800780009587800000C780011C0B30064
:106BC00060DB230001487800EA8F540006003200A1
:106BD0001900370088007800094078001900070084
:106BE0008004780014003700380090000088A3006B
:106BF0001100320018019000A80090004800900099
:106C0000B7FA070098009000810F5000040032008E
:106C1000380090000003B300300498008084EB003B
:106C20000000EB001004980028009000000C780091
:106C3000010037008084EB00090078004F04BE009B
:106C4000000006000200FA00889FBE00A0FF9F001F
:106C500001047800B1009000810478000904B200BA
:106C6000020032000000FB00360037000118A300CC
:106C700005003A000103B30031049800190498009C
:106C80000080EB002F003700580090000000E0006B
:106C900006003A004800900012002000E6805700ED
:106CA0008FFA07001904980024003700280090008C
:106CB0000000E00008003A0020DB230020049800D8
:106CC000000C780020002000500498001004980068
:106CD0000130A0003104980018019000A800900035
:106CE000480090007EFA070028009000000C780011
:106CF0000080EB001004980018007800AFF89700AF
:106D000001587800000C78002FF89700EA4F5000E7
:106D10000A003A00380090000088A3000700320003
:106D200018019000A8009000480090006CFA07003D
:106D300019049800A8009000010C7800AFF89700A3
:106D40000100FB004F04BE000080FA0000000600B6
:106D50000000000000000000DE82000000000000D3
:106D6000C1C0000081C100004001000001C300005B
:106D7000C00300008002000041C2000001C6000004
:106D8000C00600008007000041C7000000050000A9
:106D9000C1C5000081C400004004000001CC000017
:106DA000C00C0000800D000041CD0000000F00006D
:106DB000C1CF000081CE0000400E0000000A00009C
:106DC000C1CA000081CB0000400B000001C90000D7
:106DD000C00900008008000041C8000001D8000080
:106DE000C01800008019000041D90000001B0000FD
:106DF000C1DB000081DA0000401A0000001E000024
:106E0000C1DE000081DF0000401F000001DD000046
:106E1000C01D0000801C000041DC000000140000C8
:106E2000C1D4000081D500004015000001D700004A
:106E3000C01700008016000041D6000001D20000FB
:106E4000C01200008013000041D3000000110000B8
:106E5000C1D1000081D000004010000001F000000E
:106E6000C03000008031000041F10000003300001C
:106E7000C1F3000081F20000403200000036000043
:106E8000C1F6000081F700004037000001F5000066
:106E9000C03500008034000041F40000003C0000D8
:106EA000C1FC000081FD0000403D000001FF00002A
:106EB000C03F0000803E000041FE000001FA0000DB
:106EC000C03A0000803B000041FB00000039000098
:106ED000C1F9000081F800004038000000280000DF
:106EE000C1E8000081E900004029000001EB00003A
:106EF000C02B0000802A000041EA000001EE0000E3
:106F0000C02E0000802F000041EF0000002D000087
:106F1000C1ED000081EC0000402C000001E4000005
:106F2000C02400008025000041E50000002700008B
:106F3000C1E7000081E600004026000000220000BA
:106F4000C1E2000081E300004023000001E10000F5
:106F5000C02100008020000041E0000001A00000EE
:106F6000C06000008061000041A1000000630000DB
:106F7000C1A3000081A20000406200000066000082
:106F8000C1A6000081A700004067000001A5000025
:106F9000C06500008064000041A40000006C000097
:106FA000C1AC000081AD0000406D000001AF0000E9
:106FB000C06F0000806E000041AE000001AA00001A
:106FC000C06A0000806B000041AB00000069000057
:106FD000C1A9000081A800004068000000780000FE
:106FE000C1B8000081B900004079000001BB000079
:106FF000C07B0000807A000041BA000001BE0000A2
:10700000C07E0000807F000041BF0000007D0000C6
:10701000C1BD000081BC0000407C000001B4000044
:10702000C07400008075000041B5000000770000CA
:10703000C1B7000081B60000407600000072000079
:10704000C1B2000081B300004073000001B1000034
:10705000C07100008070000041B0000000500000CE
:10706000C190000081910000405100000193000098
:10707000C0530000805200004192000001960000C1
:10708000C0560000805700004197000000550000E6
:10709000C19500008194000040540000019C000054
:1070A000C05C0000805D0000419D0000005F0000AA
:1070B000C19F0000819E0000405E0000005A000059
:1070C000C19A0000819B0000405B00000199000014
:1070D000C05900008058000041980000018800005D
:1070E000C04800008049000041890000004B0000BA
:1070F000C18B0000818A0000404A0000004E000061
:10710000C18E0000818F0000404F0000018D000003
:10711000C04D0000804C0000418C00000044000085
:10712000C184000081850000404500000187000007
:10713000C047000080460000418600000182000038
:10714000C042000080430000418300000041000075
:10715000C1810000818000004040000050410000DB
:107160003700000044580000530000004A4F000060
:107170004630000030300000303000003030000079
:107180000056000041000000563000002F000000B3
:107190005354000000300000303100000030000087
:1071A0003030000031000000494400003100000090
:1071B0004342000031000000494400003400000058
:1071C0004944000035000000564100003100000035
:1071D000564100003200000056410000330000001C
:1071E0004442000031000000444100003100000032
:1071F0004241000031000000434100003100000026
:1072000043410000313500000043000041310000DF
:1072100037000000434100003200000043410000FD
:1072200033000000434100003400000043410000EF
:1072300038000000434100003130000000440000ED
:1072400042000000444100000054000041320000B0
:10725000005400004135000000540000413300009C
:1072600000450000413300000045000041320000AD
:1072700000470000383500000053000045000000C2
:10728000445800004500000031000000504100005B
:107290003100000050410000320000005041000069
:1072A0003300000050410000340000004341000062
:1072B000005400004100000047570000000000009B
:1072C0003C0800003D080000D4F80000FE0100006A
:1072D000FF010000A6F800001700000002020000F5
:1072E0000302000001000000020200000100000093
:1072F0000001000002020000020000000002000085
:10730000020200000300000000030000020200006F
:10731000040000000004000002020000050000005C
:107320000005000004020000050200000200000049
:10733000060200000702000003000000080200002F
:1073400009020000040000000E020000000000001E
:10735000050100000F02000000000000050200000F
:10736000100200000000000005030000D903000027
:1073700000000000050400001102000000000000F1
:1073800006010000120200000000000006020000DA
:1073900013020000000000000603000014020000B9
:1073A0000000000006040000DA030000DB03000018
:1073B0000606000050030000510300000700000013
:1073C0009204000093040000080000005907000028
:1073D0000000000009000000CC060000CD060000FF
:1073E0000A00000064070000650700000D000000AF
:1073F00000010000000C000001020000060A00006D
:107400000609000002040000030500000403000058
:1074100009130000EB010000EC01000044FA000039
:107420000400000000000000060000000000000052
:107430000000000000000000080000000000000044
:107440001900000000000000E4010000000000003E
:107450001B000000000000001D00000000000000F4
:10746000F505000000000000000000000000000022
:1074700042160000000000006308000064080000DD
:1074800000000000000000000C04000000000000EC
:10749000D3010000D4010000000000000000000043
:1074A0000B05000000000000E5010000E6010000FF
:1074B00000000000000000001503000000000000B4
:1074C00054030000550300000C0000000000000001
:1074D0000E00000000000000D801000000000000C5
:1074E0000E0000000000000010000000000000007E
:1074F000D2010000000000000000000000000000B9
:1075000017010000050100003703000038030000E8
:1075100000000000000000003D0C0000050100001C
:107520006803000069030000000000000000000084
:107530001602000000000000A7030000A8030000DE
:107540000000000000000000180A00000401000014
:107550002D0300002E0300000000000000000000CA
:10756000180A0000010500000605000007050000DC
:107570000000000000000000180A000001060000E2
:10758000D3030000D403000000000000000000004E
:1075900014090000000000003F0300004003000049
:1075A0000000000000000000000E000000000000CD
:1075B0006A0300006B0300000000000000000000F0
:1075C0003E0F0000000000006C0300006D0300008F
:1075D00000000000000000000F100000000000008C
:1075E000AD030000AE03000000000000000000003A
:1075F00011070000000000005203000053030000C8
:1076000000000000000000003C0600000000000038
:10761000A4040000A5040000000000000000000019
:1076200012080000000000003B0300003C030000C3
:107630000000000000000000130D0000000000002A
:107640005803000059030000000000000000000083
:107650003F12000000000000E1030000E203000010
:1076600000000000000000004114000000000000C5
:107670009D0400009E0400000000000000000000C7
:107680004011000000000000B7030000B803000034
:1076900000000000000000001C13000000000000BB
:1076A00088040000890400000000000000000000C1
:1076B0001E150000000000009B0400009C04000058
:1076C0000500000000000000430000000000000072
:1076D0006B0800006C080000E9010000EA010000EE
:1076E000DCF700009601000097010000A4F70000FD
:1076F0004F0000005000000046F30000150200009B
:1077000016020000F6F200006002000061020000B4
:1077100048F10000A9020000AA02000004F10000E4
:10772000A7020000A8020000B2F000009C020000C6
:107730009D02000062F000002B0700002D040000F5
:107740002B0400002D0200002B0200002D01000080
:107750002B010000890200008A02000002F00000F4
:1077600074020000750200007CEF0000700200004F
:10777000710200002CEF0000290200002A02000024
:107780009AEE00002C0200002D0200000000000014
:10779000250200002602000058EE000079020000D9
:1077A0007A020000A2ED0000230200002402000083
:1077B0005AE900000100000018C2000006000000A5
:1077C00084C200000800000096C20000090000000A
:1077D000ACC200000A00000078C200000C000000EB
:1077E00066C200000E00000056C700001100000035
:1077F00014C800001400000030C200001600000091
:10780000B4C8000017000000AEC800001B00000054
:1078100042C200002B00000036C200003100000010
:107820001EC200003200000024C2000087000000D9
:10783000A8B6000000000000000000000F030000D8
:1078400004120000FF0100000231000003040000E8
:10785000120F000087FF00000100000018C20000A6
:107860000200000012C200000600000084C20000F6
:1078700009000000ACC200001400000030C200008B
:10788000470000002AC200000300000054C20000AC
:10789000040000004EC200001200000048C20000B8
:1078A0003200000024C20000310000001EC20000AF
:1078B00035000000CEBB00004C000000C8BB00003B
:1078C0004E00000062BE00005100000084BB0000BA
:1078D0004500000082BE0000BB00000060B900004F
:1078E00034000000B0BB00004100000066B9000099
:1078F0004600000024BE0000370000007EBB0000F0
:107900004D000000BCBB000033000000AABB00001B
:1079100052000000BABE00005300000096BB0000F9
:107920005500000090BB000036000000B6BB000010
:107930004000000072BB0000420000000ABA0000D4
:10794000430000002ABE00000A00000078C20000C8
:107950000700000072C200000800000096C200008C
:107960002A00000074C500000C00000066C2000080
:107970001B00000042C200002B00000036C20000C5
:107980000E00000056C700000F00000044C70000B2
:10799000100000003EC700001C00000038C70000B7
:1079A0001100000014C80000600000004AC7000079
:1079B000280000001AC800001100000014C80000D0
:1079C0006A0000000EC800006B00000008C800003C
:1079D000D800000024C8000039000000BABD000033
:1079E0001800000060C20000190000005AC2000028
:1079F00016000000B4C8000017000000AEC8000068
:107A0000D6000000E2C200001A000000A8C8000072
:107A1000D20000006CBB0000D3000000D4BB00000B
:107A2000D40000008ABB0000C8000000B8C20000FB
:107A3000C9000000BEC20000CA000000C4C20000AD
:107A4000CB000000CAC20000CC000000D0C2000081
:107A5000CD000000D6C20000CE000000DCC2000055
:107A6000CF000000BCC70000D10000005CC70000D0
:107A7000DB00000078BB00004F0000008AC500005A
:107A8000FF0000000CC200007F00000032C70000B1
:107A9000E2000000F6C80000BC00000062C6000062
:107AA00087000000A8B600000000000000000000F1
:107AB000CE390000FFCD0000072B00000A080000AF
:107AC0000C2A00001BFF0000CCD10000D8E200000F
:107AD000FFD40000335200005355000034FF000073
:107AE000D33500004C4E000051450000BBFF0000A4
:107AF000D24200004D37000041FF0000CBD2000011
:107B0000D3D400004041000046FF0000CA06000038
:107B1000010200004709000014FF0000C81800001F
:107B20001A160000174F0000FFC9000003040000F0
:107B3000120F00001032000031FF0000D6CF00000D
:107B4000C9C80000CACB0000CCCD0000CEFF0000A9
:107B5000DB430000FF0000003C0800003D0800007F
:107B60003E0800003F0800004008000041080000F7
:107B700000000000F7060000F8060000B2600000F8
:107B80009E0100009A010000A50100009A0100007A
:107B9000A6010000000000000000000096010000A7
:107BA00097010000990100009A010000980100006F
:107BB0009A0100009E0100009A010000A10100004E
:107BC0000000000000000000180200001902000080
:107BD0001A020000000000001B020000000000006C
:107BE0001C020000000000001D0200000000000058
:107BF0001E020000000000001F0200000000000044
:107C0000200200000000000021020000000000002F
:107C10002202000000000000000000001702000027
:107C2000010000001702000002000000170200001F
:107C3000030000001702000004000000170200000B
:107C400005000000FF000000C4060000C50600009B
:107C5000CC570000B9020000BA020000D653000061
:107C6000020100006407000065070000E403000053
:107C700000000000E303000000000000000000001E
:107C8000B9020000BA020000BB020000BC02000002
:107C9000BD020000BE020000000000000101000063
:107CA00078E6000000000000740200007502000089
:107CB0007602000000000000790700007A0700004B
:107CC000000000002E0200002F02000004510000FE
:107CD000EE040000EF04000063020000000000005A
:107CE00064020000000000006502000000000000C7
:107CF0006602000000000000DC030000000000003D
:107D000000000000EE040000EF0400008C4F0000B3
:107D10006002000061020000630200000000000039
:107D20006402000000000000650200000000000086
:107D30006602000000000000DC03000000000000FC
:107D400000000000A7020000A80200008C04000050
:107D50008D0400008E0400008F0400009C020000CF
:107D60009D0200009F02000000000000A002000031
:107D7000000000009702000098020000BA4B0000CB
:107D800097020000980200009A0200000000000024
:107D90009B020000000000000000000090020000B4
:107DA0008F020000FF0000009402000000000000AD
:107DB000DF060000E0060000E20600008C02000082
:107DC000E10600008C020000E20600008D020000C7
:107DD000E10600008D020000E20600008E020000B5
:107DE000E10600008E020000000000008902000091
:107DF0008A020000000000008B0200008C020000DC
:107E0000010000008B0200008D0200000200000053
:107E10008B0200008E0200000300000086020000BA
:107E20000000000000000000202D00003E200000A7
:107E300000200000003A0000002000002020000088
:107E4000202000002020000000250000003A000053
:107E500020000000202F000020000000472D00001F
:107E6000353000003020000044000000202D0000CC
:107E70002000000007800000143C00000580000086
:107E80000000000007800000143C00000500000016
:107E90000000000007800000143C00000480000087
:107EA0000000000007800000143C000004000000F7
:107EB0000000000078000000143C00007800000082
:107EC0000000000078000000143C0000700000007A
:107ED0000000000078000000143C00006800000072
:107EE0000000000078000000143C0000600000006A
:107EF0000000000078000000143C00005800000062
:107F00000000000078000000143C00005000000059
:107F10000000000078000000143C00004800000051
:107F20000000000078000000143C00004000000049
:107F30000000000000780000143C00000070000009
:107F40000000000000780000143C00000068000001
:107F50000000000000780000143C000000600000F9
:107F60000000000000780000143C000000580000F1
:107F70000000000000780000143C000000500000E9
:107F80000000000000780000143C000000480000E1
:107F90000000000000780000143C000000400000D9
:107FA0000000000000070000143C00000007000073
:107FB0000000000000070000143C00000006000064
:107FC0000000000000070000143C00000005000055
:107FD0000000000000070000143C00000004000046
:107FE00000000000800000001C3C00004000000079
:107FF0001C3C0000200000001C3C000010000000A1
:108000001C3C0000080000001C3C000004000000B4
:108010001C3C0000020000001C3C000001000000AD
:108020001C3C000001000000000000000080000077
:108030001C3C0000004000001C3C00000020000030
:108040001C3C0000001000001C3C00000008000068
:108050001C3C0000000400001C3C0000000200006A
:108060001C3C0000000100001C3C000080000000DF
:10807000143C0000800000000000000080000000B0
:108080000C3C0000800000000000000040000000E8
:108090000C3C000040000000000000002000000038
:1080A0000C3C000020000000000000001000000058
:1080B0000C3C000010000000000000000800000060
:1080C0000C3C00000800000000000000010000005F
:1080D0000C3C0000010000000000000000800000D7
:1080E0000C3C000000800000000000000040000088
:1080F0000C3C0000004000000000000000200000D8
:108100000C3C0000001000000C3C000000080000C7
:108110000C3C0000000400000C3C000000020000C9
:108120000C3C0000000100000C3C0000002000009E
:108130005854000020460000616900006C000000F7
:1081400002000000F401000098080000E8030000AD
:10815000AC0D00000B00000001320000B032000046
:108160000300000001570000B032000003000000CF
:1081700002080000B03200000100000002300000E0
:10818000B032000001000000500600001233000071
:108190000200000005010000B032000000000000F5
:1081A0005003000012330000000000000210000025
:1081B000B03200000100000002600000B032000098
:1081C0000100000002F80000B032000001000000D1
:1081D00002180000B032000001000000454100001C
:1081E000370000004541000042000000454100000A
:1081F0005F3000003100000000450000434F0000E8
:1082000000450000435300000045000047530000B4
:108210005F000000454E0000555F00003038000050
:1082200000450000415F00003032000000450000C2
:108230004E5F000030310000004500004E45000058
:10824000004500004241000000450000424D000092
:1082500000450000464C000000450000444B000073
:10826000004F000042490000004500004541000069
:10827000004500004454000000450000444900004F
:10828000004500004455000000450000445F000028
:108290003031000000450000444200005F00000053
:1082A00045460000485F000000450000424A0000CB
:1082B00000450000465F000030310000004500002E
:1082C00042470000004500004F4100005F000000F1
:1082D000454E00004B0000004544000044000000F3
:1082E000454400004A5F0000004500004F5F000069
:1082F00030310000004500004A4C00005F000000E3
:10830000454A00005F310000325F00000045000078
:108310004A5F0000315F000000450000475F000039
:10832000355F0000004500004C4800005F00000081
:10833000454900005F000000454C0000425F00001E
:10834000004500004A5F0000325F00000045000069
:108350004A4200005F000000454A00005F31000013
:10836000340000004F420000480000004542000079
:10837000490000004541000052000000454B00004C
:108380004D000000454B0000324D0000004500004C
:108390004C5F0000325F0000004500004C5F0000B1
:1083A000335F0000004F0000425F000030310000EA
:1083B00000450000495F0000300000004544000017
:1083C0005F30000032000000454400005F300000D4
:1083D00034000000454500005F300000310000001F
:1083E00045420000450000004542000043000000F7
:1083F0000152000030000000523100000000000077
:108400000000000000000000002500000000000047
:108410000000000004250000000000000000000033
:10842000082500001B0700001C0700000C250000A9
:10843000190700001A070000E023000005030000F0
:1084400006030000F4230000020300000303000001
:1084500000240000D9060000DA06000018240000FD
:10846000390100003A010000082400008E010000DC
:108470008F010000F4240000900100009101000031
:108480000000000056010000570100008823000092
:1084900034010000350100007423000020010000B9
:1084A0002101000064230000EA000000EB0000004E
:1084B00054230000A0000000A1000000CC23000015
:1084C0009D0000009E00000098230000A500000011
:1084D000A60000007C230000AA000000AB00000002
:1084E000102500009200000093000000E824000026
:1084F000980000009900000082FF00009B0000002F
:108500009C000000000000007B0000007C000000D8
:10851000D6FE0000820000007E0000008000000007
:10852000810000007F0000000000000083000000C8
:10853000840000002EFE000086000000870000007E
:1085400088000000890000008A0000008B00000005
:108550008C000000000000008D0000008E00000074
:1085600086FD000090000000910000000000000067
:108570003F0000004000000010FD0000410000002E
:1085800042000000D4FC000047000000480000004A
:1085900098FC000045000000460000005CFC000064
:1085A000430000004400000020FC000049000000DF
:1085B0004A000000E4FB00004B0000004C000000FB
:1085C000A8FB00003D0000003E00000066FB00002C
:1085D0002020000020000000522C0000330000008A
:1085E000422C0000312C0000257500002C6F00008B
:1085F0006B000000422C0000322C000025750000AA
:108600002C6F00006B000000422C0000312C000099
:10861000257500002C580000004200002C3200009C
:108620002C250000752C000058000000412C000093
:10863000332C0000257500002C6F00006B0000003B
:10864000412C0000332C0000257500002C58000040
:10865000004200002C3300002C250000752C000087
:108660006F6B0000004200002C3300002C2500003E
:10867000752C000058000000432C0000332C000033
:10868000257500002C580000004300002C3300002A
:108690002C250000752C00006F6B000000410000CD
:1086A0002C3200002C250000752C00006F6B0000A0
:1086B000004100002C3200002C250000752C000029
:1086C00058000000432C0000322C000025750000EB
:1086D0002C580000004300002C3200002C25000024
:1086E000752C00006F6B0000004100002C31000071
:1086F0002C250000752C00006F6B0000004100006D
:108700002C3100002C250000752C000058000000C2
:10871000432C0000312C0000257500002C5800006F
:10872000004300002C3100002C250000752C0000B7
:108730006F6B0000000000004C6F000073740000BD
:108740002C25000075000000412C0000257500005C
:108750002C250000752C000025750000004E00003F
:108760002C2500007500000050610000796F0000AA
:10877000752C000025750000004A00002C30000018
:1087800078300000392C000025750000004A0000F8
:108790002C30000078300000412C000025750000CE
:1087A000004A00002C30000078300000422C00000D
:1087B00025750000004200002C3200002C580000FB
:1087C000004B00002C30000078300000422C0000EC
:1087D000257500002C25000075000000472C0000C6
:1087E00025750000004D00002C25000075000000DC
:1087F00049000000462C00002575000000430000E1
:108800002C250000752C0000257500002C2500008B
:1088100075000000442C0000257500002C25000088
:10882000752C00002575000000480000005800006D
:108830005F410000434B0000004500002C25000074
:10884000752C0000257500002C2500007500000027
:10885000D9060000DA060000DF0200000000000078
:10886000E00200000000000000000000160300000D
:108870001703000021030000000000002003000097
:1088800000000000000000001803000019030000B1
:108890001A0300001B0300001C030000000000007E
:1088A0000C0300000D0300000E0300000F03000086
:1088B0001003000011030000120300001303000066
:1088C0001403000015030000160300001703000046
:1088D0000000000022030000230300002403000026
:1088E00025030000000000009D0000009E00000025
:1088F0000B030000000000000C0300000D0300004B
:108900002803000029030000C1050000C205000083
:1089100000000000502C0000312C0000462C00000C
:10892000257500002C250000752C00002575000021
:108930002C25000075000000002000000000000051
:10894000009600001E050000961E0000FFFF0000BC
:10895000FFFF0000FFFF0000FFFF0000000100001C
:10896000CC750000A000000000000000D4750000DD
:10897000AE0000000030000088290000A0000000C8
:10898000001700008C290000AE00000000700000FD
:10899000D0750000A00000000104000000010000EC
:1089A0000001000001000000060000000C000000B3
:1089B00000040000060100000102000001010000A7
:1089C00001060000010F000001010000000000008E
:1089D0000000000000000000000000000000000097
:1089E00002000000005400002C250000752C00003F
:1089F000257500002C250000750000005431000092
:108A00002C250000752C0000257500000055000085
:108A10002C250000387300002C250000387300005E
:108A200000000000242A0000232A00002C2A000055
:108A30002C2A00002C2A00002C2A00002C00000008
:108A400024300000235200002C34000000440000B9
:108A500000420000005200002C32000000520000D2
:108A60002C330000005000002C3100002C250000A9
:108A7000752C000025750000005000002C3100000E
:108A80002C250000752C0000257500002C25000009
:108A900075000000502C0000257500002C250000FA
:108AA000752C000025750000005000002C310000DE
:108AB0002C250000752C0000257500002C250000D9
:108AC000752C000025750000005000002C250000CA
:108AD000752C0000257500002C250000752C000069
:108AE0002575000000000000A1030000A2030000A3
:108AF00004260000A1030000A2030000A30300005D
:108B0000A4030000A5030000A6030000000000006D
:108B1000000000005A0300005B030000E025000095
:108B20005F0300005E03000000000000640300001B
:108B30006503000000000000455800004954000093
:108B40000028000000290000002E00004241000023
:108B50004B0000002E6C00006F6700000024000036
:108B600031230000422C000025380000732C000047
:108B7000256C0000752C0000256C000075000000BD
:108B80000D00000031300000000100003130000015
:108B9000010100003131000000010000313100000E
:108BA00001010000323000000001000032300000FE
:108BB00001010000323100000001000032310000EC
:108BC00001010000333000000001000033300000DC
:108BD00001010000333100000001000033310000CA
:108BE00001010000313000000003000031310000BD
:108BF00000030000323100000003000020000000EC
:108C0000205000004D000000204100004D000000F9
:108C100014030000010000009A990000993E000032
:108C200000E00000B444000007030000520300000D
:108C3000260200001A0400001900000000000000D5
:108C400061450000B81E0000853D0000F4010000F1
:108C5000F401000014280000070800001828000094
:108C60001C2800000A000000E8030000F4010000D6
:108C7000682300003534000020280000242800006C
:108C800000000000020300000405000001060000CF
:108C9000540800005508000056080000570800005E
:108CA00058080000590800005B0800005C0800003C
:108CB0005D0800005E0800005F080000600800001A
:108CC000000000005408000055080000B42A00000D
:108CD00000000000000000009600000000000000FE
:108CE00001050000960000000100000000000000E7
:108CF0000000000001000000010000000000000072
:108D00000100000002000000000000000000000060
:108D1000452C0000257500002C250000752C000056
:108D2000257500002C25000075000000442C000073
:108D3000257500002C250000752C0000257500000D
:108D40002C2500007500000054520000414E000028
:108D50005346000045520000494400004100000015
:108D60002D2D00002D2D00002D2D00002D2D00009B
:108D70002D2D00002D0000004F460000462C000065
:108D800025750000004F00004E000000472D000038
:108D9000353400003620000044000000472D00005C
:108DA0003533000035200000440000003131000060
:108DB0002F300000312F000032300000323400002C
:108DC00020310000333A0000303500000037000049
:108DD0003634000038320000003C00003D3D000009
:108DE0000044000045580000200000003D3D000008
:108DF0003E000000202800000029000000000000C4
:108E0000522C00002575000000000000000000004A
:108E10000000000001000000000000000A00000047
:108E2000000000006400000000000000E8030000F3
:108E3000000000001027000000000000A0860000D5
:108E400001000000404200000F000000809600007A
:108E50009800000000E10000F505000000CA0000D5
:108E60009A3B00005606000057060000082A000042
:108E7000590100005A0100000C2A0000C100000046
:108E8000C2000000102A0000BB000000BC0000006F
:108E9000142A0000B5000000B6000000FC29000004
:108EA000B7000000B800000000000000AF000000A4
:108EB000B0000000182A0000AD000000AE00000065
:108EC0001C2A00004E6F0000432C00002575000096
:108ED000004300006F6E00002C25000075000000AC
:108EE0000A00000000000000640000000000000014
:108EF000E803000000000000102700000000000050
:108F0000A086000001000000404200000F000000A9
:108F1000472D0000353000003020000044000000E4
:108F2000472C0000257500002C250000752C000042
:108F3000257500002C250000750000004733000057
:108F40002C25000075000000473100002C25000092
:108F5000752C00002575000000470000302C000033
:108F6000257500002C250000750000004732000028
:108F70002C250000750000004D0000004E00000090
:108F80008825000048010000490100004C01000054
:108F90004D010000520100005301000000000000DC
:108FA00048010000490100004E0100004F0100008F
:108FB0005001000051010000520100005301000067
:108FC00000000000434100005247000041520000F1
:108FD00020410000504C0000494300004143000084
:108FE000494F00004E20000050520000494E000042
:108FF00043490000504100004C0000005052000066
:10900000494D000041520000494F0000000000009F
:109010004A0300004B0300005429000048030000ED
:109020004903000058290000C5000000C6000000E8
:109030005C290000CA000000CB000000602900008D
:10904000286A00006BFF0000C3000000C40000009D
:1090500064290000D811000028FF0000432C000004
:1090600020250000752C0000206F00006B00000020
:10907000412C00002025000075000000442C000059
:10908000202500007500000042000000583200005A
:109090000058000033000000583000000058000065
:1090A0003100000001000000020000000400000088
:1090B0000800000010000000200000004000000038
:1090C0008000000000010000000200000004000019
:1090D0000008000000100000002000000040000018
:1090E00000800000492C0000257500002C250000A0
:1090F00075000000482C000031000000462C0000E4
:109100002575000000470000004200002C250000EB
:10911000752C0000257500002C5800000000000090
:10912000D0D1000001000000D2D3000002000000F6
:10913000D6D7000008000000D4D5000010000000C1
:10914000CECF000080000000200000002A000000B8
:1091500048010000490100006425000043010000AF
:1091600044010000502500003F01000040010000C4
:1091700040250000D10E00000F100000607F0000AD
:10918000FF200000002000002D200000003A000019
:10919000202000002000000054320000612C00005C
:1091A000257500002C250000752C00002575000099
:1091B0002C250000750000003C2300000500000085
:1091C00005000000242300000708000040230000E1
:1091D000442300002D2D00002D2D00002D2D00001A
:1091E0002D2D00002D2D0000000000005208000071
:1091F00053080000AC2A0000E2BC0000FF000000A1
:10920000202800002A290000000000007A01000048
:109210007B01000044260000A08023000048EB00F2
:109220000000060033292000620420001100200005
:1092300030002000B838040001000000A0802300A6
:109240008C2E020000000000EC0F500004003600DD
:1092500042012000A10020000000EB0003003700C5
:10926000420020001100200040002000AE38040021
:1092700001000000889FBE0080047800663502006F
:109280000100000000447800E2C1B300CC0C0700EC
:10929000AA2D0200020000000001EB008900780006
:1092A000A080230020280200020000000884FB00A8
:1092B000080078004F04BE0000000600881F7800F8
:1092C000004478000004E00004003A00A08023007D
:1092D00060610200010000000A0037000000EB009E
:1092E000FE4F540008003E00A50C0700AA2D020006
:1092F0000200000088407800A0802300325E020057
:1093000001000000100020004F047800000006005B
:10931000881F7800004478000004E00003003A0051
:10932000A12820009028200004003700FF4F5000A3
:1093300005003A008000EB0040292000B63302000F
:10934000010000000C0037000080FB000000E90075
:109350008000EB00FE0F500008003C00880C070066
:10936000AA2D02000200000088407800A08023009F
:10937000325E0200010000001100200001007800B0
:109380004F04780000000600E34F5000090032004F
:1093900003003E00E14F500032003A000800370061
:1093A000E84F500011003200E94F50002D003A0004
:1093B0000A003700603B020001000000280037006F
:1093C000D10C070082982400419C24008086200054
:1093D000A03D02000100000021003700808620002F
:1093E000A4260200020000001D003700208B23008D
:1093F000618B230090487800718B23008048EB003C
:1094000010407800FE4F5000110032000040E8008C
:109410001EB1020001000000F4AA020001000000D9
:10942000A18C230080487800F8AA02000100000007
:10943000B18C230080487800FCAA020001000000E3
:10944000C18C23008048780060A724000200370008
:109450005E0C070080AC2400DCCE0200010000009E
:109460000000050020002F0000000600889FBE00BD
:109470008000EB00E44F500019003E0062C0B300D2
:109480000440BC00820478000280E80068EF2B00F2
:10949000E0007C0062007C00B633020001000000A6
:1094A0006480440060407C00110020000004E00063
:1094B0000B0032000080FB00918C23000100400073
:1094C0001004E00002003A000029200001003700EB
:1094D000F02820008A340200010000001100200062
:1094E000010078004F04BE0000000600E84F500065
:1094F0000D003200E94F50001300320021002F0010
:10950000E14F500020003A00708B2300904178001A
:1095100062A3240061A7240080862000A03D0200F1
:1095200001000000170037002B0C0700638B23009D
:10953000E3CF500006003A001340E800A18C23005E
:109540000CB1020001000000409C24000B00370019
:109550000140780062C0B3000440BC0000F02B0062
:10956000000141001280FB00730040000300400036
:109570001080FB00E0C58900E0B72400DCCE0200CB
:10958000010000008000EB000100780000000600F0
:10959000E84F50000F003200E94F50000B0032003E
:1095A00021002F00E14F500011003A00808B230072
:1095B0009041780042ED2B0081AC24008086200091
:1095C000D23D02000100000008003700409C24004A
:1095D00004003700218B2300808B23001148780082
:1095E000A0AF2400DCCE0200010000008000EB00F0
:1095F000E5FF3700E34F50001400320003003E0047
:10960000E24F50001F003A0005003700E84F5000BD
:1096100011003200E94F50001A003A0015003700DF
:10962000F10B0700E2310200010000006429200074
:109630005329200022032000A10020002000200048
:109640008E380200010000000D003700603B020070
:10965000010000000A003700808B23001080FB000F
:1096600000004000C1B92B0001004000C2EF020021
:109670000000000080AC2400DCCE020001000000ED
:109680000000050020002F00000006000004E0009C
:109690000B003A00708B23001081FB000201E800F0
:1096A0006611B9008280E80060EF2B00E1007800CD
:1096B00062007800B6330200010000000C003700A1
:1096C0000080FB00000040000080E900E1EC2B007E
:1096D000E08078000001EB00F00F2000808F500048
:1096E00004003200A08023002028020002000000B5
:1096F000120020000200780000000600E84F500031
:109700000C003200E94F50001500320021002F00FC
:10971000E14F500016003A00E3C5810062B4240016
:10972000E1B7240080862000A03D02000100000077
:109730000E003700208B23009081FB00E3C58900D9
:10974000708B23001080FB006600B90002F02B0034
:10975000020040009080FB00908C23008370780012
:1097600060A72400DCCE0200010000008000EB00B6
:1097700085FF3700881F780080407800E94F50004F
:109780002300320005003E00E14F50000D00320082
:10979000E84F500037003A0014003700F0C4B3001F
:1097A00080CF50001F0032000040E80080CF500002
:1097B000210032007A40500080CF50002D003A0046
:1097C0002500370040C6B3007063020001000000AE
:1097D0008041780002EC2B00A1BB24008086200091
:1097E000D23D0200010000000C003700288B23004E
:1097F0009840780040C6B300E45C0200010000001D
:109800009880FB00200520006C9E020001000000F3
:1098100080862000A4260200020000000000EB0069
