:020000040000FA
:100000008020040000000000842000008820000000
:100010008C20000090200000942000009820000018
:100020009C200000A0200000A4200000A8200000C8
:10003000AC200000B0200000B4200000B820000078
:10004000BC200000C0200000C4200000C820000028
:10005000CC200000D0200000D4200000D8200000D8
:10006000DC200000E0200000E4200000E820000088
:10007000EC200000F0200000F4200000F820000038
:10008000FC200000002100000421000008210000E5
:100090000C21000010210000142100001821000094
:1000A0001C21000020210000242100002821000044
:1000B0002C210000302100003421000038210000F4
:1000C0003C210000402100004421000048210000A4
:1000D0004C21000050210000542100005821000054
:1000E0005C21000060210000642100006821000004
:1000F0006C210000702100007421000078210000B4
:100100007C21000080210000842100008821000063
:100110008C21000090210000942100009821000013
:100120009C210000A0210000A4210000A8210000C3
:10013000AC210000B0210000B4210000B821000073
:10014000BC210000C0210000C4210000C821000023
:10015000CC210000D0210000D4210000D8210000D3
:10016000DC210000E0210000E4210000E821000083
:10017000EC210000F0210000F4210000F821000033
:10018000FC210000002200000422000008220000E0
:100190000C2200001022000014220000182200008F
:1001A0001C2200002022000024220000282200003F
:1001B0002C220000302200003422000038220000EF
:10020000FFFFFFFFFFFFFFFF0000000000000000F6
:1002100000000000000000000000000000000000DE
:1002200000000000000000000000000000000000CE
:1002300000000000000000000000000000000000BE
:1002400000000000000000000000000000000000AE
:10025000000000000000000000000000000000009E
:10026000000000000000000000000000000000008E
:10027000000000000000000000000000000000007E
:10028000000000000000000000000000000000006E
:10029000000000000000000000000000000000005E
:1002A000000000000000000000000000000000004E
:1002B000000000000000000000000000000000003E
:1002C000000000000000000000000000000000002E
:1002D000000000000000000000000000000000001E
:1002E000000000000000000000000000000000000E
:1002F00000000000000000000000000000000000FE
:1003000000000000000000000000000000000000ED
:1003100000000000000000000000000000000000DD
:1003200000000000000000000000000000000000CD
:1003300000000000000000000000000000000000BD
:1003400000000000000000000000000000000000AD
:10035000000000000000000000000000000000009D
:10036000000000000000000000000000000000008D
:10037000000000000000000000000000000000007D
:10038000000000000000000000000000000000006D
:10039000000000000000000000000000000000005D
:1003A000000000000000000000000000000000004D
:1003B000000000000000000000000000000000003D
:1003C000000000000000000000000000000000002D
:1003D000000000000000000000000000000000001D
:1003E000000000000000000000000000000000000D
:1003F00000000000000000000000000000000000FD
:104100008022040000000000FAAB0400020000005E
:10411000FAAB040002000000A0A4040002000000AA
:10412000BEA4040002000000E4A404000200000099
:10413000FAAB040002000000FAAB04000200000029
:10414000FAAB040002000000FAAB04000200000019
:10415000FAAB040002000000FAAB04000200000009
:10416000FAAB0400020000005A8D040001000000B8
:10417000FAAB040002000000FAAB040002000000E9
:10418000FAAB0400020000000C5104000200000021
:10419000FAAB040002000000FAAB040002000000C9
:1041A000E0830400010000007C83040001000000A3
:1041B000FAAB040002000000888D0400010000003A
:1041C000FAAB040002000000FAAB04000200000099
:1041D000068A040001000000FAAB0400020000009F
:1041E000FAAB040002000000FAAB04000200000079
:1041F000FAAB040002000000FAAB04000200000069
:10420000FAAB040002000000FAAB04000200000058
:104210001051040002000000FAAB0400020000008C
:1042200094C4040001000000FAAB04000200000086
:10423000FAAB040002000000248604000100000024
:10424000C085040001000000FAAB04000200000079
:10425000568D040001000000FAAB040002000000CB
:10426000FAAB040002000000FAAB040002000000F8
:10427000FAAB040002000000FAAB040002000000E8
:10428000FAAB040002000000FAAB040002000000D8
:10429000FAAB040002000000FAAB040002000000C8
:1042A000FAAB040002000000FAAB040002000000B8
:1042B000FAAB040002000000FAAB040002000000A8
:1042C000FAAB040002000000FAAB04000200000098
:1042D000FAAB040002000000FAAB04000200000088
:1042E000FAAB040002000000FAAB04000200000078
:1042F000FAAB040002000000FAAB04000200000068
:10430000FAAB040002000000FAAB04000200000057
:10431000FAAB040002000000FAAB04000200000047
:10432000FAAB040002000000FAAB04000200000037
:10433000FAAB040002000000FAAB04000200000027
:10434000FAAB040002000000FAAB04000200000017
:10435000FAAB040002000000FAAB04000200000007
:10436000FAAB040002000000FAAB040002000000F7
:10437000FAAB040002000000FAAB040002000000E7
:10438000FAAB040002000000FAAB040002000000D7
:10439000FAAB040002000000FAAB040002000000C7
:1043A000FAAB040002000000FAAB040002000000B7
:1043B000FAAB040002000000FAAB040002000000A7
:1043C000FAAB040002000000FAAB04000200000097
:1043D000FAAB040002000000FAAB04000200000087
:1043E000FAAB040002000000FAAB04000200000077
:1043F000FAAB040002000000FAAB04000200000067
:10440000FAAB040002000000FAAB04000200000056
:10441000FAAB040002000000FAAB04000200000046
:10442000FAAB040002000000FAAB04000200000036
:10443000FAAB040002000000FAAB04000200000026
:10444000FAAB040002000000FAAB04000200000016
:10445000FAAB040002000000FAAB04000200000006
:10446000FAAB040002000000FAAB040002000000F6
:10447000FAAB040002000000FAAB040002000000E6
:10448000FAAB040002000000FAAB040002000000D6
:10449000FAAB040002000000FAAB040002000000C6
:1044A000FAAB040002000000FAAB040002000000B6
:1044B000FAAB040002000000FAAB040002000000A6
:1044C000FAAB040002000000FAAB04000200000096
:1044D000FAAB040002000000FAAB04000200000086
:1044E000FAAB040002000000FAAB04000200000076
:1044F000FAAB040002000000FFFFFFFFFFFFFFFF19
:10450000CFEC23000E7724000E018800000000008D
:104510000C000700E0E82300210020001100070044
:10452000000020000000E000020032000000020055
:10453000000000006E780200020000000040DA0077
:104540000000FE004440A900205421000000E000CB
:104550000300320000002000A00188004440A800B1
:104560000000060091018800800078000000EB0048
:1045700015003700E280400032A0B4009101BA007B
:10458000E280400032A0B4009102BA00E280400014
:1045900032A0B4000002EB00472BDE00F507B200AA
:1045A000602CE10004003A000059EB008301E900AF
:1045B000FDFF3E00040037006128E10001003200E9
:1045C0000082EB00040007001101BA000200E000C5
:1045D000E8FF3A00000006003159BA008301E90003
:1045E0000C0032002159BA008301E90008003200B2
:1045F0000400E00003003A00E280400032A0B40072
:10460000F5FF370011D9BA008301E900FAFF3A003B
:104610008100E800E180400032A0B4000000060004
:104620000C870400020000006A87040002000000FA
:104630004887040002000000908704000200000088
:10464000C28704000200000050870400020000003E
:10465000A48704000200000020880400020000007B
:104660008488040002000000C288040002000000E8
:104670000689040002000000148704000200000004
:1046800040500400020000004A50040002000000F4
:10469000DA8B040002000000C2A304000200000044
:1046A000228C040002000000EA8D040002000000D9
:1046B0009AA8040002000000028D0400020000001D
:1046C000988D040002000000E48B0400020000004A
:1046D000DA76040002000000C0EC040001000000D3
:1046E0009EEC04000100000070EC040001000000DA
:1046F000CEF7040001000000D8F60400010000001D
:1047000054F304000100000078EC040001000000F4
:1047100048ED04000100000072F5040001000000F3
:1047200078F4040001000000BCF304000100000064
:104730000AF6040001000000CE5904000100000048
:10474000E259040001000000665A04000100000064
:1047500056690400010000003063040001000000FD
:104760005062040001000000D6590400010000005E
:104770000C6C040001000000B86C04000100000093
:10478000AC660400010000008E5A04000100000025
:1047900066AA0400010000001C9A04000200000048
:1047A0000E9A040002000000FE99040002000000BE
:1047B000409A040002000000069A04000200000073
:1047C000249B040002000000DC84040002000000BE
:1047D000F2840400020000000285040002000000D0
:1047E000DA850400020000005C850400020000007D
:1047F0008285040002000000008604000200000020
:104800004C860400020000006A86040002000000DA
:10481000867F0400020000009C7F0400020000006C
:10482000B880040002000000C47F04000200000001
:10483000EC7F04000200000042800400020000003F
:104840006080040002000000DE800400020000001E
:1048500034810400020000005281040002000000C4
:104860000A7B040002000000DEDF040001000000FB
:1048700082DF04000100000072DF0400010000007C
:1048800098E2040001000000D4E2040001000000EE
:1048900098EB0400010000007ADF04000100000032
:1048A000F8E704000100000046E0040001000000F9
:1048B000FCE8040001000000BEEB04000100000061
:1048C0006EE0040001000000E2E4040001000000CA
:1048D000D0E1040001000000ACE004000100000091
:1048E00008E1040001000000FCDF040001000000FA
:1048F000A852040002000000465604000200000016
:104900006E56040002000000B052040002000000D5
:10491000CC56040002000000D25704000200000040
:104920009457040002000000E48D04000100000020
:1049300026570400020000002C580400020000006A
:104940009EA5040001000000E2A504000100000093
:104950001EA60400010000005AA604000100000089
:1049600096A6040001000000D2A604000100000089
:104970000EA70400010000004AA704000100000087
:1049800068B3040001000000D2B20400010000007E
:104990003AB2040001000000EAB104000100000086
:1049A000D6B0040001000000C4AF04000100000004
:1049B000C2AE0400010000005EAE04000100000071
:1049C000AEAD04000100000036AD0400010000009F
:1049D000CCAC0400010000008CB304000100000016
:1049E000E4B3040001000000B6B3040001000000BD
:1049F00054AA04000100000026AA040001000000DF
:104A0000BAA9040001000000A4A9040001000000EC
:104A100010A9040001000000A0A80400010000008B
:104A200034A8040001000000C8A704000100000031
:104A300052A704000100000016A7040001000000B6
:104A4000DAA60400010000009EA604000100000098
:104A500062A604000100000026A604000100000078
:104A6000EAA5040001000000A8A504000100000060
:104A7000BC9F0400020000004A9F040002000000E6
:104A8000989E040002000000069F0400020000003F
:104A90004E8B040001000000469404000200000058
:104AA00036940400020000007A9404000200000022
:104AB000AE94040002000000DC9404000200000038
:104AC0003E9404000200000008950400020000006B
:104AD00048950400020000009070040002000000ED
:104AE00064740400020000000A7304000200000065
:104AF0007E84040002000000A6740400020000008E
:104B0000DC710400020000003071040002000000AB
:104B10009A70040002000000E42404000200000077
:104B20006226040002000000902904000200000038
:104B3000122A040002000000B22B04000200000050
:104B400022940400010000000A4604000100000055
:104B50005E98040001000000AE9704000100000010
:104B60002899040001000000CA9904000100000017
:104B7000109A040001000000829B04000100000064
:104B8000AA9D04000100000090A1040001000000A3
:104B90004E4F040001000000C0A20400010000000C
:104BA0002856040001000000C8A204000100000013
:104BB0008AA204000100000068A4040001000000B3
:104BC00098A104000100000066A10400010000009B
:104BD000B29D040001000000789D04000100000067
:104BE000D09B0400010000008A9B0400010000002B
:104BF0003E9B040001000000F49A04000100000044
:104C00009C9A0400010000002E9A0400010000009C
:104C1000DE990400010000008C99040001000000EE
:104C20004099040001000000769804000100000093
:104C30002C9404000100000076DD04000000000058
:104C4000C8DD0400000000007EDD0400000000005C
:104C5000F2DD040000000000EAF0040000000000A3
:104C600000DE0400000000009AE5040000000000DF
:104C70007CF4040000000000CCE50400000000000B
:104C800062FB040000000000DEE7040000000000FA
:104C9000CCE704000000000002E80400000000006F
:104CA00058E80400000000009AE80400000000003A
:104CB000E6F8040000000000B4E804000000000072
:104CC0007CF8040000000000A4E9040000000000DB
:104CD00020F0040000000000C0F704000000000005
:104CE0006CE904000000000000EA0400000000007D
:104CF0003EEA040000000000C6EF040000000000CF
:104D00002AF9040000000000FAF604000000000088
:104D1000EAF2040000000000C0ED04000000000002
:104D2000F8ED04000000000040ED04000000000069
:104D3000D8EE04000000000016EF040000000000A0
:104D400096EE0400000000009AEA04000000000053
:104D500086EF04000000000086DE04000000000072
:104D60008EF20400000000000AEB040000000000C6
:104D7000EAF404000000000066EB040000000000FC
:104D8000C0EA04000000000062E604000000000029
:104D9000ACEB04000000000090F4040000000000F0
:104DA00030EE04000000000058EE04000000000097
:104DB0008AFA040000000000F6FA04000000000077
:104DC00060F70400000000003CFA0400000000004E
:104DD00000FA04000000000008F6040000000000D3
:104DE0009E450400010000008A4604000100000006
:104DF0009C580400010000009447040001000000DA
:104E0000704804000100000068490400010000002F
:104E1000CC4704000100000022480400010000000B
:104E2000E2480400010000009A570400010000005D
:104E3000804A040001000000904B040001000000C3
:104E4000C44A040001000000E24A0400010000001E
:104E5000F44B040001000000464E04000100000075
:104E6000CE4D040001000000A64D0400010000002A
:104E7000FA4E040001000000285004000100000068
:104E8000F251040001000000E6520400010000009D
:104E9000BC540400010000006C5404000100000038
:104EA0007855040001000000C0FE0400000000006E
:104EB0008E57040001000000EE4E040001000000C7
:104EC0004A4C0400010000002A4D040001000000CB
:104ED0008C4A0400010000002E4A0400010000007A
:104EE000B80F04000200000060100400020000007F
:104EF000E20F040002000000EA0F040002000000BC
:104F00006A10040002000000A21004000200000069
:104F1000DE10040002000000521104000200000034
:104F2000BC11040002000000E612040002000000B0
:104F3000E2110400020000006A12040002000000F6
:104F4000121204000200000010140400020000000D
:104F50008A12040002000000AA12040002000000ED
:104F60000C130400020000009A1304000200000069
:104F70005613040002000000541404000200000054
:104F800002150400020000007A1404000200000070
:104F900080140400020000000C1504000200000050
:104FA00078150400020000002E1504000200000025
:104FB0003A1604000200000000170400020000007E
:104FC000B416040002000000801604000200000075
:104FD00038170400020000000C1804000200000052
:104FE000D01704000200000058180400020000005E
:104FF000CE1804000200000078180400020000002F
:105000007E18040002000000D8180400020000000E
:105010000C190400020000003E1904000200000008
:10502000C219040002000000041A0400020000007B
:10503000361A040002000000681A04000200000092
:105040005E18040002000000CC4F040002000000C3
:10505000D44F0400020000005A14040002000000B3
:105060009C4E040002000000A44E04000200000058
:10507000B24E040002000000C04E04000200000016
:10508000C00F040002000000B64F04000200000040
:10509000BE4F040002000000345B0400000000006A
:1050A000C84E040002000000D04E040002000000C0
:1050B000C01A040002000000261B040002000000C9
:1050C000F61A040002000000FE1A040002000000AC
:1050D000301B040002000000601B040002000000FE
:1050E000E21F040002000000AE1B040002000000EA
:1050F0002E1C0400020000000C1C04000200000032
:10510000E81B040002000000581C0400020000001C
:10511000901C040002000000D01C040002000000EB
:10512000B01C0400020000000E1D0400020000007C
:10513000401D040002000000C41D04000200000025
:10514000FE1D040002000000261E040002000000F4
:10515000541E040002000000CE1E040002000000E5
:10516000521F0400020000008C1F04000200000017
:10517000B41F040002000000D6200400020000005A
:10518000DC20040002000000D02004000200000027
:10519000EA200400020000001821040002000000C0
:1051A00044210400020000007021040002000000FD
:1051B0009C21040002000000CA210400020000003B
:1051C0000A22040002000000F22104000200000094
:1051D000F821040002000000202204000200000068
:1051E0009222040002000000682304000200000074
:1051F0005022040002000000E4220400020000002B
:105200002223040002000000A22304000200000088
:10521000CE23040002000000EE2304000200000080
:105220001A24040002000000D02104000200000043
:105230005A4E040002000000624E0400020000000A
:10524000C81A040002000000F84F04000200000029
:1052500000500400020000002E9E04000200000026
:10526000009D040002000000F2660400020000003D
:1052700046650400020000000A6404000200000009
:10528000E497040002000000D4980400020000002B
:105290006A7C040002000000987D04000200000007
:1052A000B67D040002000000DE7D04000200000064
:1052B000727C0400020000001A8E0400020000004C
:1052C0000A8E040002000000388E04000200000074
:1052D000568E040002000000128E0400020000003E
:1052E000808F0400020000000A8F0400020000000A
:1052F00054A8040002000000A431040002000000D1
:105300006C4F040002000000704F04000200000017
:10531000704E0400020000007E4E040002000000F7
:10532000D604040001000000A809040001000000E8
:105330009408040001000000EC13040001000000C8
:10534000B8FE040000000000960F040001000000F9
:1053500078150400010000004E0204000100000066
:105360009A01040001000000E60A040001000000A8
:10537000B21D040001000000D22B04000100000057
:10538000D80D040001000000DE030400010000004D
:105390005E0404000100000090040400010000000D
:1053A0003C0B0400010000004E0704000100000057
:1053B000900B040001000000200604000100000022
:1053C000D8120400010000005A0604000100000089
:1053D000D8080400010000008E070400010000004E
:1053E0000808040001000000A20E040001000000F3
:1053F000EC070400010000003A0404000100000072
:105400006212040001000000D80604000100000040
:10541000280F0400010000005413040001000000E4
:10542000BA03040001000000141E04000100000083
:10543000341E0400010000004C1E040001000000A6
:10544000821E040001000000D61E040001000000BE
:10545000181F0400010000002A1F040001000000C2
:10546000781F040001000000B81F040001000000C4
:1054700020210400010000008C2104000100000034
:10548000CC2104000100000088220400010000007B
:10549000EC220400010000001823040001000000B9
:1054A000FA20040001000000E620040001000000D2
:1054B0000024040001000000D220040001000000CC
:1054C000F4230400010000000C240400010000008B
:1054D000DA2D040001000000AC24040001000000EB
:1054E000E8240400010000002C2504000100000055
:1054F000842504000100000098250400010000003C
:10550000381D0400010000004E8604000000000069
:1055100014860400000000001C8604000000000047
:105520005886040000000000768604000000000099
:10553000BC86040000000000FA86040000000000A1
:105540005C87040000000000E88704000000000001
:10555000D888040000000000188804000000000043
:105560001E88040000000000E28804000000000023
:105570001EB10400000000007EA70400000000002F
:105580001C89040000000000A48904000000000041
:10559000E891040000000000908A04000000000070
:1055A000368A040000000000F48A040000000000B5
:1055B000208B040000000000548B04000000000059
:1055C0006C8B040000000000848B040000000000CD
:1055D0009C8B040000000000B48B0400000000005D
:1055E000CC8B0400000000008A8C04000000000046
:1055F000DC8B040000000000288D04000000000087
:10560000328D0400000000007E9F040000000000B6
:10561000768D040000000000688D0400000000008A
:10562000408D040000000000188F040000000000FE
:10563000908E040000000000968E04000000000020
:10564000228F040000000000628F040000000000B0
:105650007E8F040000000000249004000000000081
:10566000C6900400000000009091040000000000BB
:1056700016890400000000007CAC0400000000005B
:10568000A4B004000000000008AD04000000000009
:1056900024B004000000000068AF04000000000017
:1056A000749204000000000080B0040000000000BC
:1056B00080AE04000000000002A70400000000000B
:1056C00046B00400000000003A930400000000000F
:1056D00050AE040000000000A0A204000000000082
:1056E000F0A204000000000090A0040000000000F0
:1056F00086AD0400000000001A94040000000000C1
:1057000048940400000000003AAB040000000000D0
:105710004AAD040000000000A09404000000000056
:10572000B49404000000000094A5040000000000F0
:10573000A4950400000000000A9504000000000089
:10574000109504000000000070A304000000000099
:105750006A97040000000000DA97040000000000CF
:10576000C697040000000000BA9704000000000083
:10577000109A040000000000EC98040000000000F3
:10578000C097040000000000CC9804000000000056
:10579000769A040000000000689A040000000000EF
:1057A0005C9A0400000000009E9A040000000000C3
:1057B000629A040000000000E89E0400000000005F
:1057C000329E040000000000F09C04000000000075
:1057D000F69C04000000000004A604000000000085
:1057E000EAAD040000000000BCAD040000000000B1
:1057F000DCAB040000000000A2A3040000000000D5
:10580000C2A5040000000000E4B004000000000095
:10581000CA930400000000002E970400000000005E
:10582000E2A10400000000001AA50400000000002E
:1058300054A8040000000000AEAA0400000000000C
:1058400078930400000000009E8A0400000000001D
:105850009CB304000000000016A804000000000033
:1058600010A904000000000012A1040000000000C4
:10587000D8AF040000000000FA920400000000000D
:10588000E09204000000000054AC0400000000009E
:105890002C9304000000000040B30400000000004E
:1058A00022AE040000000000A0AE040000000000D2
:1058B0003AAF04000000000098AF040000000000B0
:1058C000BEAE040000000000BA9404000000000016
:1058D0007E4F040002000000764F0400020000002A
:1058E000A694040000000000984F0400020000008D
:1058F000904F040002000000D28B04000000000062
:105900002E4E040002000000364E0400020000008B
:10591000BA8B040000000000024E040002000000E8
:105920000A4E040002000000A28B040000000000E8
:10593000EC4D040002000000F44D040002000000E1
:105940008A8B040000000000D64D04000200000015
:10595000DE4D040002000000728B04000000000015
:10596000C04D040002000000C84D04000200000009
:105970005A8B040000000000A44D04000200000047
:10598000B04D040002000000F08704000000000099
:10599000444E0400020000004C4E040002000000CF
:1059A000A04F040002000000AE4F040002000000FF
:1059B000D4530400000000005A540400000000000A
:1059C0004C540400000000009C7A04000000000019
:1059D0002E5B04000000000068810400000000004D
:1059E0009C5B040000000000925B040000000000CB
:1059F0005C6C040000000000186B04000000000054
:105A00001C5C040000000000A674040000000000FC
:105A1000F25C0400000000004E5C04000000000086
:105A20009E6A040000000000426A040000000000BA
:105A30003E5D0400000000002E680400000000002D
:105A40003A82040000000000046C04000000000022
:105A5000FE67040000000000365F04000000000044
:105A6000D879040000000000327404000000000037
:105A7000A067040000000000766F04000000000032
:105A80006476040000000000C46A04000000000006
:105A9000386E040000000000CC7504000000000017
:105AA0000261040000000000AE600400000000007D
:105AB000445F040000000000205E040000000000BD
:105AC0001070040000000000D8690400000000000D
:105AD000565D040000000000C662040000000000E3
:105AE0003C5C040000000000745D04000000000045
:105AF0009C5D0400000000007A69040000000000C2
:105B0000885C04000000000034690400000000000C
:105B1000AA660400000000000A66040000000000FD
:105B2000F270040000000000526104000000000058
:105B30009E71040000000000DA650400000000000F
:105B40004267040000000000AA6304000000000097
:105B5000B6610400000000007A5F0400000000004D
:105B6000E266040000000000C47D040000000000A4
:105B7000DC53040000000000547E0400000000001C
:105B80000A5F040000000000184E0400020000003C
:105B9000264E0400020000005292040002000000A1
:105BA0002E92040002000000869204000200000011
:105BB000BA92040002000000E89204000200000013
:105BC000369204000200000014930400020000005A
:105BD0005493040002000000BC46040002000000D0
:105BE00040460400020000003046040002000000AD
:105BF0006446040002000000F246040002000000B7
:105C000038460400020000002C4704000200000097
:105C1000704A0400020000008C47040002000000EB
:105C20008E4A0400020000008648040002000000C2
:105C30004C48040002000000C048040002000000BC
:105C4000286C040002000000206D04000200000027
:105C5000526D040002000000EA6E04000200000021
:105C6000706D040002000000C26D0400020000001C
:105C7000306C040002000000286E040002000000E6
:105C80003C6F040002000000A26F0400020000004C
:105C9000E858040002000000C4580400020000009C
:105CA000B4580400020000001E5B04000200000063
:105CB0001259040002000000BC5804000200000059
:105CC000EE5C0400020000006A59040002000000BB
:105CD000025D0400020000002C5A040002000000D3
:105CE000C05A0400020000005E5A040002000000D6
:105CF000605B040002000000A2FA04000100000042
:105D00003EFD0400010000008AFA040001000000CA
:105D100068FD0400010000009AFA04000100000080
:105D2000C8F8040001000000880004000200000020
:105D3000D2FA04000100000096FB040001000000FC
:105D4000F8FD040001000000A4FE040001000000B2
:105D500054FF040001000000EAFF040001000000FD
:105D600022FB0400010000006001040002000000AA
:105D700092FA040001000000060204000200000084
:105D8000DC020400020000004C24040001000000BA
:105D9000E01D040001000000C4A80400020000008F
:105DA000CEA8040002000000C2A604000200000009
:105DB000A8B8040000000000CEC2040000000000EB
:105DC0004CB804000000000054C2040000000000B1
:105DD000BAD10400000000006ACD040000000000F9
:105DE000B2BF0400000000001AC10400000000005F
:105DF00018CC040000000000BCCE0400000000002D
:105E0000D8BD0400000000006AC6040000000000C5
:105E1000B8B804000000000072BC040000000000DC
:105E200004D404000000000050B904000000000089
:105E300054B8040000000000D2DA040000000000A2
:105E4000F4D704000000000080D904000000000026
:105E50007ABD040000000000EE070400020000000C
:105E60004A04040002000000D405040002000000FF
:105E7000F2040400020000002605040002000000F5
:105E80005C05040002000000DA0C040002000000BF
:105E9000600B040002000000160A0400020000006B
:105EA00096040400020000005A04040002000000EE
:105EB00018A204000200000002A204000200000078
:105EC000F8A2040002000000E2A2040002000000A8
:105ED000366E040001000000666E04000100000040
:105EE000846E040001000000B66E04000100000092
:105EF0005E7F040001000000DA750400010000006C
:105F00006C730400010000003675040001000000FD
:105F10001673040001000000BA76040001000000BE
:105F20001E6F040001000000967B040001000000C9
:105F30002A74040001000000606F040001000000EA
:105F4000327C0400010000000C7704000100000016
:105F50006E78040001000000687904000100000070
:105F6000B872040001000000020AB900001BB90069
:105F70000200B800810042008100430000000600DA
:105F80000A00FA0080017800E20F500028003E006D
:105F900050F68100E10F50000800320080232000FD
:105FA0000000E0000500320004232000252320002B
:105FB00046232000800178000400370004222000DE
:105FC0002522200046222000832220001440900039
:105FD0000004E000040035008009EB00144090004C
:105FE0000074A00010429800154090000028A30003
:105FF00003003A00154090000024A0009042980051
:106000008001EB0007003700154090000008A30056
:10601000FDFF320063C078000000FB00000B780039
:106020008301E800828F5100F7FF3A000800370033
:1060300030002000B0BF9F00C3BF9F00D1BF9F00B2
:10604000E2BF9F006A80570000C0DA006FB9970076
:10605000020078000080FA0000000600839F6800BC
:106060000100E00002003D0060001000E080180028
:106070000300E00002003D0060011100E081190012
:10608000140007004F00E00002003B006000100019
:10609000E080180000000600811F78000100E00089
:1060A00002003D0060001000E08018000300E000E6
:1060B00002003D0060011100E08119001500070099
:1060C0004F00E00002003B0060001000E08018007C
:1060D000000006006022B800060220000000D00088
:1060E0008180D2000482D2008582D2000000A0000C
:1060F0000202520083825A00030031000202420071
:1061000083824A000000A1000603E900F3FF3A0081
:1061100000000600EFFF07000400BE0000000600BC
:106120000001BE003D0107000470A70003F0A100BC
:1061300003F8A30013003A006509B1001000320013
:10614000090035006928E10002003500010028003F
:106150000000050000004000818048008502E90041
:10616000FCFF3A0000000600F88F420005003500F1
:106170008100D1000080D3008502E800FCFF3A00D6
:10618000000006008000EB0000000500F4FF2F0077
:1061900037013700140020003501370003F0A2005A
:1061A000889FBE008A9FBE008C1F78004B010700AD
:1061B000520133006450E1004F0032006420E100DE
:1061C0005200320003826C0007003B000905D0003A
:1061D0000306D000820F54000C065D000200390057
:1061E000020032008901780003067800858255009C
:1061F00004003D000003FD008103FD008502EA006C
:106200008B854200840F720002003B00600010008A
:10621000E08018006011B8000005EB007A28E1006A
:106220000A00390006007800C75DDD00F707B200FC
:10623000878075002D003700828171000A01780087
:10624000610560008180D1000080D3008502E900F3
:10625000F9FF3B00060440008784480002003B0031
:1062600060041400E0841C000988A30007003200C9
:106270008A81710082817100610164008904D1000A
:106280000884D3008B05E800170037000978A300C5
:1062900013003A000B00E000130034008B05E90006
:1062A0000804440089844C000A4474000978A3005F
:1062B0000D003A000B00E000070034008B05E900F8
:1062C0000804440089844C0001003A000B002000BF
:1062D0000978A300F7FF32000001EB00020037004D
:1062E000828171000A017800140107000CF0A700F8
:1062F00001F0A0000A0137006420E10002003A002A
:10630000838F6C000A0133000801BE000200BE004A
:1063100003013700889FBE008A9FBE0001057800F8
:106320000100E0000400350008003C000000E0002F
:10633000200032000500370060001000E0801800E7
:1063400002003B0001F02C001A0037000004BE00E0
:106350006011B8006B0920000982CF0002003900EB
:106360000882CF000441B000694252000E003200A2
:1063700008003B0082817100610164008904D10042
:106380000884D3008B05E8000442E800F9FF3A00D6
:10639000050037000804440089844C008B05E9009F
:1063A0000442E900FBFF3A00E40007000AF0A700FE
:1063B00001F0A0004F05BE004F04BE000000060023
:1063C000889FBE008A9FBE008C1F7800C300070014
:1063D000CA00330003866C006450E1002E003200D6
:1063E0006420E100330032006150E1002F003200F0
:1063F0006120E1003100320085855500EB07B000D7
:1064000009002000080420000500370008044400AB
:1064100089844C000A0031000603430087834B0047
:106420000001530081815B00F8FF33000203BE00CE
:106430000800A0000804440089844C00F6FF3900DD
:10644000C639DD0083017300010032001300200013
:106450008904D1000884D3000998A3000500320004
:106460000800A7000300A0008904D1000884D3001D
:106470008B05E8008904D1000884D3000001EB00FB
:106480000281D200AD00070001F0A1000CF0A700CE
:1064900001F0A000A20037006420E100A400320057
:1064A0000801BE000200BE00F7FF37006120E100D6
:1064B0009F0032006000B800F3FF370000002000AA
:1064C00001F82700F0FF3700889FBE008A9FBE00BA
:1064D0008C1F7800810007008800330003866C0061
:1064E0006450E100240032006420E1002700320003
:1064F0006150E100220032006120E1002100320001
:106500008B854200EB07B1000134B800003AB800B7
:106510000804420089844A00013AB8000030B800FB
:106520008880400009014A00040033000000400058
:1065300081804800020149008B05E900C909DD009E
:10654000830170000100320013002000C814DE0037
:106550004814DD004709DE001200B200C808DE0062
:10656000088470007500070001F0A1000CF0A7007E
:1065700001F0A0006A0037006120E1006C003200E9
:106580000801BE000200BE00F7FF37006150E100C5
:10659000FCFF3A00660037000001BE001F00070044
:1065A0000470A70003F0A1006509B10016003200D5
:1065B0000D0035006828E10006003500F0FF2F00CF
:1065C000F1FF27000300E00013003B00010028005A
:1065D0000000050000004000818048008502E900BD
:1065E000FCFF3A0008003700F88F420002003C0030
:1065F0008000EB00000005008100D1000080D30086
:106600008502E800FCFF3A000300E00002003B00C6
:1066100060001000E080180000000600C70ADE00DD
:10662000F107B200F50FB20008003200E1CF4200DE
:10663000020032000170A00024000500810F7000EC
:10664000010032000408050044000500810F7000BD
:1066500002003A00140005008502E9000000400035
:1066600081C04800FCFF3B000170A0002400050031
:10667000889FBE008A9FBE00841F78001700070015
:106680004F00780011003300F0FF2F00838F6C0063
:1066900006003B00040565000A00A700080037005B
:1066A00009F0A6001000200008003700820F5400F7
:1066B000838F5C00030039001000200001003E00C1
:1066C0000000200009F0A7000000EA004F05BE000E
:1066D0004F04BE000000E000000006000004BE0001
:1066E000CEFF07000003BE000405BE000200BE008E
:1066F000CAFF0700844F7500000006000200BE00BC
:106700006450E100050036006420E100020036001C
:106710000968A30001003A000800BE000160A00063
:106720004F0678004F05BE004F04BE000000060073
:10673000F0FF2F00F1FF2700F9FF37008100200054
:10674000618055000B003D000B00200061FE2F0012
:106750000100E1001D0034008281710061016400CC
:106760008904D1000884D3000000E800FAFF3A0051
:1067700071002000610064000300700002006000EE
:106780000900320061044400E0844C000988A5003F
:10679000050032008B05E8006808E10002003A00BD
:1067A0008904D1000884D300F20F20000258E100D0
:1067B00005003D00C75DDD00F907B2008980750066
:1067C00008007800000006000BF827008B00780016
:1067D00000000500881F7800000478005001BE000A
:1067E0004000BE00040040008580480006014900CA
:1067F00087814900009CBE000294BE000400E100B5
:106800000588E1000690E1000798E10002003100F0
:10681000680044001008E8004F04780000000600FB
:10682000F4874700889FBE008A9FBE008C9FBE00F1
:106830008E1F78000205BE000004BE00D4B79F0082
:10684000E5B79F00F6B79F0087BF9F000000EB00F1
:10685000C0B79F00B0B79F00A0B79F0090B79F0040
:1068600080B79F000D042000BFB097004FB0970085
:10687000000140000000E0000F003D004F08DE0076
:1068800000007100C0B79F009E00070001003D009E
:1068900012002000A100070001003D0012002000AE
:1068A000A6000700B1000700B60007000F00400077
:1068B000C8FF0700220037004F08DE000006710005
:1068C000CCB79F008F00070001003D0012002000A0
:1068D0009200070001003D00120020009700070011
:1068E000A20007000FB297009FB297002FB3970046
:1068F000BFB39700A90007000000520081805A0032
:1069000002015B0083815B0080B79F0091B79F000D
:10691000A2B79F00B3B79F000007EB009F000700DE
:106920000020E10001A8E10002B0E10003B8E100AD
:10693000010031001E0020000E005600C0B79F006D
:106940004FB297000400E00007003500100020005F
:10695000010020006011B8000804700089847000F4
:106960000A0571008B8571008D06E900BEFF3A00B3
:106970000400E00003003D00820007000F0040001B
:1069800094FF07004FA897000000E00004003A00C1
:106990000FB497009FB497002FB59700BFB597002D
:1069A000940007004F0778004F06BE004F05BE0059
:1069B0004F04BE004F01B10000000600881F7800A0
:1069C00018002000881F780095FF07008F87E900D6
:1069D0004F04780000000600801FEB0090FF0700C6
:1069E0008F87E90000000600889FBE008A9FBE00D6
:1069F0008C1F78006E00070007003D007300070041
:106A0000E00F5B00E08F5B0007003D0032000700F5
:106A10000006EB00040037003400070002003D00D0
:106A20002A0007001C00200072000700E3FF070097
:106A30000203BE000002BE000C00E00001003200B4
:106A4000220007000400BE000601BE004F067800C9
:106A50004F05BE004F04BE0000000600889FBE0028
:106A60008A9FBE008C1F78005100070005003D0082
:106A700056000700E00F5B00E08F5B0006003D0062
:106A8000040037001900070003003D006000B80053
:106A90006011B8001000070056000700CEFF070085
:106AA0000203BE000002BE000C00E0000100320044
:106AB000060007000400BE000601BE004F06780075
:106AC0004F05BE004F04BE00000006006000B80085
:106AD0006011B800000037000402500085825800A1
:106AE0000603590087835900000006000006EB00EA
:106AF000E00F5200E08F5A00E00F5B00E08F5B0078
:106B0000000006000180400090B79F000001EB00EC
:106B10008FB097000100E000000006000200700046
:106B200090B79F000180400080B79F000001EB00FC
:106B3000FFA897000100E0000000060002007000BE
:106B400080B79F00018040006FAA9700CF20DE0031
:106B500001007000F0AF9F00040242002500070012
:106B60004F18DE000002720000000600E4AF9F0034
:106B70000804440089844C000A054D008B854D00B3
:106B8000000006003FB29700CFB297005FB39700B6
:106B9000EFB3970000FE2F00000006003FB0970003
:106BA000CFB097005FB19700EFB1970000000600EB
:106BB0000205BE000004BE00E00F5000E08F580048
:106BC000E00F5900E08F5900000006006000B80097
:106BD0006011B80008045000898458000A05590063
:106BE0008B8559001C002000E00F5200E08F5A00F6
:106BF000000006000800BE000A01BE0000000600FA
:106C00008001780000017800314078000059780058
:106C10000004E000FCFF3A000300780000000600DA
:106C200010417800814F5100040032000000E8005C
:106C30000204E000FAFF3A000000EB00000006004A
:106C40000003780080027800020278008001EB00E7
:106C5000080037000402E90063C07800805A780019
:106C60008301E8000004E00002003A008000EB002D
:106C700006003700828F5100F6FF3A00FBFF370015
:106C80000040EB0080F07A008100E800848F500023
:106C9000FBFF3A00060078000000060000017800C3
:106CA00000C2B300010037000201E8009240780002
:106CB00080CF5000FCFF3200E9CF5000FAFF3200D5
:106CC000D0C2B30080CF500003003A000201E800B8
:106CD00014C0B300050037000042EB00B0C2B3009F
:106CE00080CF500001003A000201E8008000EB0074
:106CF00005FD2F00040037006A08B900008041003C
:106D0000850040000201E8009201FB00058041007F
:106D1000E90F5000F8FF36000404E00001003200E3
:106D20008100EA0001007800000006008000780081
:106D30003004E000FEFF3A00010050000000E900CE
:106D40000000060080017800000178000100370093
:106D50000201E8001204E000FDFF3A003140780033
:106D6000005978000004E000FCFF3A0003007800BE
:106D7000000006008001EB000200370061F079009E
:106D80008301E800828F5100FCFF3A0000000600FA
:106D900010417800B141510003003A000000E800C2
:106DA0000204E000FAFF3A000300FB0000000600C6
:106DB0008001EB0002003700817178008301E80058
:106DC000828F5100FCFF3A00000006008001EB00BA
:106DD000040037008301E80090CF10000400320067
:106DE0000000E800828F5100FAFF3A000000EB003B
:106DF00000000600889FBE000004BE000D003700A2
:106E000009007800C9FF0700000178000800BE00F3
:106E1000400007000000E00002003A00080078008F
:106E2000090037009900FB000800E8007CFF07001C
:106E3000000478000800E000020032001804E000BE
:106E4000EFFF3A000000EB004F04BE000000060018
:106E50000400FA00E0BF9F00E48157008129780018
:106E60000002EB000F0037006FB8970090407800E9
:106E70007FB89700104078000402E80080CF5000EF
:106E8000040032008180FB000080FB000080500085
:106E9000070037006FB897000000E800E0BF9F00D0
:106EA0009309E800820F5200EFFF3A000000EB0068
:106EB0000080FA00000006000C00FA00889FBE0067
:106EC00000047800CFB09700F0FF2700D0BF9F00EC
:106ED0008004EB0099BF9F0088BF9F00A8BF9F0060
:106EE000200C2000B0BF9F007881570070805700B1
:106EF000190007000FB89700094878000FB89700ED
:106F000008045000080078004F04BE000080FA001A
:106F100000000600810178000002EB000B00370042
:106F2000E44078000104E000030032000402E800BD
:106F300093CF5000040032008180FB001380FB00DF
:106F400000805000000006008301E800820F52001C
:106F5000F3FF3A0000000500FA874700889FBE0053
:106F60008A9FBE008C9FBE008E1F7800F0B79F00E6
:106F70000107780082BF9F000000EB00C0B79F00B0
:106F8000130237008046EB0050C2B30080CF5000A0
:106F9000090032000100FB00FFB097001702070054
:106FA000E10F40000A023200CFB097008100E800F4
:106FB000C1B79F00060237009E407800D0C2B300E0
:106FC00080CF50000C00320007003C006D405000A4
:106FD00080CF50000A0032006B40400080CF50004C
:106FE0000E003A000800370000C3B30080CF500005
:106FF0000A003A00060037000D34A00005003700F3
:107000000D04A000030037000D14A000010037009C
:107010000D24A0000E07E800E7FF37000D18A300BD
:10702000010032000D04A1000D38A3000100320060
:107030000D24A1000100FB0002FD2F000200400012
:10704000E90F50000E003E000002EB00D4B79F0095
:10705000820178005FB397006A30B9001E01FB001F
:107060000001410003014100D2B79F005E00FB0018
:1070700003004000E90F50000B003E00F5FF370011
:107080000006EB00DCB79F00A0C2B30080CF500029
:1070900005003A000FB89700C000780080BF9F003D
:1070A000D1B79F000E07E8000001EB0092B79F00E8
:1070B000E0C2B3009E4F100017003A008E00E800B7
:1070C00064405000914F1000020032000107780028
:1070D0000C0037000FBA97004403780084BF9F006C
:1070E00096B79F000E87E8000B0037001FB6970089
:1070F0006A60B900000041000300400090B79F00A3
:107100000E07E8001E01FB0003FD2F0003004100F5
:10711000E90F5000F5FF3600BE407800A1DF9F0068
:1071200030C7B30080CF50001A00320009003C0085
:107130007040500080CF5000640032006940400031
:1071400080CF50000A0032000104E000A4013200A8
:107150007D00370050C7B30080CF50007E00320062
:107160006340400080CF500077003A0006003700AF
:107170000040EB000D48A30001003A0000C1B3003D
:1071800080C67600E4FF37008D4278000574A000C9
:10719000730037008FB897004100780081BF9F00CF
:1071A000000478000000E00001003A0068D72300E6
:1071B0008004EB00010037008104E80089007800BA
:1071C000088044001004E000FBFF3A001FB1970064
:1071D0000200E00003003200890F5100010031007D
:1071E000820478000002EB0084B79F005FB3970031
:1071F000890F5300020036000900530080B79F003A
:107200004368DE00E10660001B003A000D067800CE
:1072100009003700FFB09700000220007701070047
:10722000E10F4000030032004FB097000000E8007B
:10723000C0B79F000C06E8008FB09700810F560082
:10724000F4FF3A000081EB0082B79F000A0037008C
:10725000880078003100FB0001047800FFB097003F
:1072600066010700E10F4000030032004FB29700B3
:107270000402E800C4B79F000900E9008004780018
:10728000E10F4000F2FF3A000006EB000D00E000C5
:107290000A003A004E013700FFB0970000022000BC
:1072A00056010700E10F4000030032004FB3970082
:1072B0000603E800C6B79F000C06E8000FB0970071
:1072C000800F5600F4FF3A00410137008FB8970055
:1072D0004100780081BF9F00CF80DE00010178006F
:1072E000820178000205BE000004BE000203BE0059
:1072F0000002BE004822DE00482EDD0004027600B7
:10730000A4DF9F000D48A3000A0032000404E0003F
:1073100008003200E14F420006003200B1FD2F00AC
:107320000180470004487800184098002900200098
:1073300002003700B0DF9F0019002000B2FD2F00CF
:1073400002844700A1FF3700A4FD2F0004844700FA
:10735000190020009DFF370000CCB30080C27600EA
:107360000583FB00E6B79F000648A3000700320034
:107370000FBE97004C00BE008CBF9F006011B8008C
:107380000205BE000004BE00070037008FB897005A
:107390004100780081BF9F000004780009002000B0
:1073A0000A0020000B0020001FB197000200E0003F
:1073B00007003A00E00F5400E08F5C00E00F5D0032
:1073C000E08F5D0002003A001400200094B79F0097
:1073D000EFB09700010CB20000082000808F500031
:1073E00014003200000C2000808F500025003A006D
:1073F00014C0B300E66823000B0037000400FB0054
:107400004300DD00060040005001BE004000BE0009
:107410000040E10001C8E10002D0E10003D8E10032
:10742000170039000442E800F44F5200F3FF3A001D
:107430001300370000012000010020006011B80097
:1074400014C0B3000040E10001C8E10002D0E10037
:1074500003D8E1000A003900460020000000D000F7
:107460008180D2000281D2008381D2000603E9002C
:10747000FAFF3A000442E800F04F5200F1FF3A00F0
:10748000A4DF9F002FDE97000C00FB009FB0970049
:10749000810F500002003D00A1DF9F000400370073
:1074A0001FB19700800F510001003D0090B79F0071
:1074B0005FB297000400E000050032006FB3970050
:1074C00063006300020032000402E900D4B79F00A9
:1074D0008582FB00A5B79F002FDE97000C00FB0004
:1074E0008000EB00F1AF9F005FB19700800F51006B
:1074F0000200340000005100F0AF9F002FB297004F
:107500000428A300350032006FB39700E100630048
:107510000418A3000C003200D00220000100E0009B
:1075200001003A000080E900FFB09700B3000700B7
:10753000E10F40000E0032004FB697000C06E80045
:10754000CCB79F000A0037000100E00008003200BD
:10755000FFB0970000022000A8000700E10F4000E4
:10756000030032004FB097000000E800C0B79F0052
:10757000FFA897000100E0000F0032000006EB00BA
:10758000FFB09700000320009C000700E10F4000BF
:10759000030032004FB197000201E800C2B79F001C
:1075A0000C06E8007FAA9700840F5600F4FF3A000B
:1075B0000003EB00F6AF9F001FB697004360DD00AD
:1075C00061682300810640004260DD0064065000CF
:1075D0000000EB00B0B79F0066003700FFA89700DF
:1075E0000100E000120032002FB197006800610036
:1075F0000F003A0000067800FFB09700000220005C
:107600007E000700E10F4000030032004FB29700F8
:107610000402E800C4B79F000C06E8007FAB9700A7
:10762000860F5600F4FF3A000006EB00FCAF9F0007
:107630006FB09700E10060002FB197000218A3001F
:107640000C003200D00220000100E00001003A00EE
:107650000080E900FFB0970068000700E10F4000DC
:10766000D5FF32004FB297000402E800C4B79F0074
:10767000D1FF37000100E000CFFF3200FFB09700DC
:10768000000220005D000700E10F4000CAFF320049
:107690004FB397000603E800C6B79F00C6FF370048
:1076A000EFB09700010CB20000082000808F50005E
:1076B00010003200000C2000808F50001F003A00A4
:1076C0003D02BE002D03BE000800BE000A01BE0040
:1076D000BAFC0700A4002000050020006033B800B9
:1076E000BDFC070004C3B30004424000A4DF9F00B8
:1076F0001200370014002000050020006033B8009D
:107700000C0078000000E900050033000402D000FE
:107710008582D2000683D2008783D200F9FF37002A
:107720000800BE000A01BE00A4FC07006F00600054
:10773000D4D7230064427800A4DF9F00AFD897001D
:107740000100FB00FFB097002C000700E10F400094
:10775000030032004FB197000201E800C2B79F005A
:107760003FB297000402E800B4B79F00E8865600D5
:10777000640656003FB397001FB09700800F530078
:10778000C7FF3A00AFB097000138A30010003200E5
:107790007FA997000200E0000D0034000006EB0016
:1077A000FFB097000002200014000700E10F400026
:1077B000030032004FB297000402E800C4B79F00F4
:1077C0000C06E8007FAB9700860F5600F4FF3A00E6
:1077D000BE407800A1DF9F000104E000E9FD3A000F
:1077E0004FB097004F0778004F06BE004F05BE0010
:1077F0004F04BE00AF01B10000000600889FBE002C
:107800000001780001047800B10090000118A30085
:107810003D0032000198A30003003A0018009000D8
:107820000000E00038003A000190A0003104980008
:1078300082047800F90FB200180090000000E00008
:1078400002003A0028009000000C7800EA8F5400F3
:1078500006003A00380090000078A30003003A00C8
:1078600088007800D0002000E4FF07009800900016
:1078700058009000808F50000B0032000100E8009B
:10788000100498001800780009587800000C78005F
:1078900011C0B300A0E6230001487800EA8F54002D
:1078A000060032001900370088007800094078008F
:1078B0001900070080047800140037003800900099
:1078C0000088A3001100320018019000A800900069
:1078D00048009000AAF9070098009000810F50001E
:1078E00004003200380090000003B3003004980018
:1078F0008084EB000000EB0010049800280090004A
:10790000000C7800010037008084EB00090078004B
:107910004F04BE00000006000200FA00889FBE006F
:10792000A0FF9F0001047800B1009000810478005E
:107930000904B200020032000000FB0036003700EC
:107940000118A30005003A000103B30031049800B8
:10795000190498000080EB002F00370058009000B9
:107960000000E00006003A004800900012002000ED
:10797000E680570082F907001904980024003700B8
:10798000280090000000E00008003A0060E62300B4
:1079900020049800000C780020002000500498007B
:1079A000100498000130A0003104980018019000E4
:1079B000A80090004800900071F90700280090008E
:1079C000000C78000080EB0010049800180078008C
:1079D000AFF8970001587800000C78002FF8970056
:1079E000EA4F50000A003A00380090000088A300D7
:1079F0000700320018019000A80090004800900095
:107A00005FF9070019049800A8009000010C7800A5
:107A1000AFF897000100FB004F04BE000080FA00A1
:107A2000000006000000000000000000C82E00005A
:107A300000000000C1C0000081C100004001000042
:107A400001C30000C00300008002000041C200002A
:107A500001C60000C00600008007000041C700000A
:107A600000050000C1C5000081C400004004000002
:107A700001CC0000C00C0000800D000041CD0000D2
:107A8000000F0000C1CF000081CE0000400E0000BA
:107A9000000A0000C1CA000081CB0000400B0000BA
:107AA00001C90000C00900008008000041C80000B2
:107AB00001D80000C01800008019000041D9000062
:107AC000001B0000C1DB000081DA0000401A00004A
:107AD000001E0000C1DE000081DF0000401F00002A
:107AE00001DD0000C01D0000801C000041DC000022
:107AF00000140000C1D4000081D500004015000032
:107B000001D70000C01700008016000041D6000019
:107B100001D20000C01200008013000041D3000019
:107B200000110000C1D1000081D000004010000011
:107B300001F00000C03000008031000041F1000081
:107B400000330000C1F3000081F200004032000069
:107B500000360000C1F6000081F700004037000049
:107B600001F50000C03500008034000041F4000041
:107B7000003C0000C1FC000081FD0000403D000011
:107B800001FF0000C03F0000803E000041FE0000F9
:107B900001FA0000C03A0000803B000041FB0000F9
:107BA00000390000C1F9000081F8000040380000F1
:107BB00000280000C1E8000081E900004029000021
:107BC00001EB0000C02B0000802A000041EA000009
:107BD00001EE0000C02E0000802F000041EF0000E9
:107BE000002D0000C1ED000081EC0000402C0000E1
:107BF00001E40000C02400008025000041E50000F1
:107C000000270000C1E7000081E6000040260000D8
:107C100000220000C1E2000081E3000040230000D8
:107C200001E10000C02100008020000041E00000D0
:107C300001A00000C06000008061000041A10000C0
:107C400000630000C1A3000081A2000040620000A8
:107C500000660000C1A6000081A700004067000088
:107C600001A50000C06500008064000041A4000080
:107C7000006C0000C1AC000081AD0000406D000050
:107C800001AF0000C06F0000806E000041AE000038
:107C900001AA0000C06A0000806B000041AB000038
:107CA00000690000C1A9000081A800004068000030
:107CB00000780000C1B8000081B9000040790000E0
:107CC00001BB0000C07B0000807A000041BA0000C8
:107CD00001BE0000C07E0000807F000041BF0000A8
:107CE000007D0000C1BD000081BC0000407C0000A0
:107CF00001B40000C07400008075000041B50000B0
:107D000000770000C1B7000081B600004076000097
:107D100000720000C1B2000081B300004073000097
:107D200001B10000C07100008070000041B000008F
:107D300000500000C19000008191000040510000FF
:107D400001930000C05300008052000041920000E7
:107D500001960000C05600008057000041970000C7
:107D600000550000C19500008194000040540000BF
:107D7000019C0000C05C0000805D0000419D00008F
:107D8000005F0000C19F0000819E0000405E000077
:107D9000005A0000C19A0000819B0000405B000077
:107DA00001990000C059000080580000419800006F
:107DB00001880000C048000080490000418900009F
:107DC000004B0000C18B0000818A0000404A000087
:107DD000004E0000C18E0000818F0000404F000067
:107DE000018D0000C04D0000804C0000418C00005F
:107DF00000440000C184000081850000404500006F
:107E000001870000C0470000804600004186000056
:107E100001820000C0420000804300004183000056
:107E200000410000C181000081800000404000004E
:107E3000504100003700000044580000530000008B
:107E40004A4F000046300000303000003030000063
:107E500030300000005600004100000056300000A5
:107E60002F000000535400000030000030310000AB
:107E700000300000303000003100000049440000B4
:107E8000310000004342000031000000494400007E
:107E90003400000049440000350000005641000055
:107EA0003100000056410000320000005641000041
:107EB0003300000044420000310000004441000053
:107EC0003100000042410000310000004341000049
:107ED0003100000043410000313500000043000044
:107EE0004131000037000000434100003200000033
:107EF0004341000033000000434100003400000013
:107F000043410000380000004341000031300000D0
:107F10000044000042000000444100000054000002
:107F200041320000005400004135000000540000C0
:107F300041330000004500004133000000450000CF
:107F400041320000004700003835000000530000B7
:107F500045000000445800004500000031000000CA
:107F6000504100003100000050410000320000008C
:107F70005041000033000000504100003400000078
:107F8000434100000054000041000000475700003A
:107F9000000000003C0800003D080000D42500005F
:107FA000FE010000FF010000D825000017000000BE
:107FB00002020000030200000100000002020000B3
:107FC00001000000000100000202000002000000A9
:107FD0000002000002020000030000000003000095
:107FE0000202000004000000000400000202000081
:107FF000050000000005000004020000050200006A
:10800000020000000602000007020000030000005A
:108010000802000009020000040000000E02000037
:1080200000000000050100000F0200000000000039
:10803000050200001002000000000000050300001F
:10804000D903000000000000050400001102000038
:108050000000000006010000120200000000000005
:1080600006020000130200000000000006030000EA
:10807000140200000000000006040000DA03000003
:10808000DB0300000606000050030000510300005F
:1080900007000000920400009304000008000000A4
:1080A000590700000000000009000000CC06000095
:1080B000CD0600000A00000064070000650700000C
:1080C0000D00000000010000000C00000102000093
:1080D000060A000006090000020400000305000073
:1080E0000403000009130000EB010000EC01000094
:1080F000DC25000004000000000000000600000075
:108100000000000000000000000000000800000067
:10811000000000001900000000000000E401000061
:10812000000000001B000000000000001D00000017
:1081300000000000F5050000000000000000000045
:10814000000000004216000000000000630800006C
:108150006408000000000000000000000C040000A3
:1081600000000000D3010000D40100000000000066
:10817000000000000B05000000000000E501000009
:10818000E6010000000000000000000015030000F0
:108190000000000054030000550300000C00000024
:1081A000000000000E00000000000000D8010000E8
:1081B000000000000E0000000000000010000000A1
:1081C00000000000D20100000000000000000000DC
:1081D0000000000017010000050100003703000047
:1081E0003803000000000000000000003D0C00000B
:1081F00005010000680300006903000000000000A2
:10820000000000001602000000000000A7030000AC
:10821000A80300000000000000000000180A000091
:10822000040100002D0300002E03000000000000E8
:1082300000000000180A000001050000060500000B
:10824000070500000000000000000000180A000000
:1082500001060000D3030000D4030000000000006A
:108260000000000014090000000000003F030000AF
:10827000400300000000000000000000000E0000AD
:10828000000000006A0300006B0300000000000013
:10829000000000003E0F0000000000006C03000022
:1082A0006D03000000000000000000000F1000003F
:1082B00000000000AD030000AE030000000000005D
:1082C0000000000011070000000000005203000041
:1082D0005303000000000000000000003C06000006
:1082E00000000000A4040000A5040000000000003D
:1082F0000000000012080000000000003B03000026
:108300003C0300000000000000000000130D00000E
:1083100000000000580300005903000000000000A6
:10832000000000003F12000000000000E103000018
:10833000E203000000000000000000004114000003
:10834000000000009D0400009E04000000000000EA
:10835000000000004011000000000000B703000012
:10836000B803000000000000000000001C13000023
:1083700000000000880400008904000000000000E4
:10838000000000001E150000000000009B0400001B
:108390009C040000050000000000000043000000F5
:1083A000000000006B0800006C080000E9010000FC
:1083B000EA010000E025000096010000970100009E
:1083C000E42500004F00000050000000E8250000F8
:1083D0001502000016020000EC25000060020000FB
:1083E00061020000F0250000A9020000AA020000BE
:1083F000F4250000A7020000A8020000F8250000F4
:108400009C0200009D020000FC2500002B070000DC
:108410002D0400002B0400002D0200002B020000A0
:108420002D0100002B010000890200008A020000DB
:1084300000260000740200007502000004260000FF
:1084400070020000710200000826000029020000EE
:108450002A0200000C26000025020000260200006F
:1084600010260000790200007A02000014260000A5
:108470002302000024020000182600000100000072
:1084800014CA00000600000074CA000008000000C2
:1084900086CA0000090000008CCA00000A00000023
:1084A0006ECA00000C0000005CCA00000E00000054
:1084B00006D100001100000046D1000014000000A9
:1084C0002CCA000016000000FCD1000017000000BC
:1084D000F6D100001B00000038CA00002B0000008D
:1084E00032CA0000310000001ACA00003200000049
:1084F00020CA00008700000012BD0000000000003C
:10850000000000000F03000004120000FF01000043
:108510000231000003040000120F000087FF00007A
:108520000100000014CA0000020000000ECA000092
:108530000600000074CA0000090000008CCA000098
:10854000140000002CCA00004700000026CA0000EA
:10855000030000004ACA00000400000044CA0000F2
:10856000120000003ECA00003200000020CA0000D5
:10857000310000001ACA00003500000032C20000BD
:108580004C0000002CC200004E000000B8CD0000DE
:1085900051000000EEC1000045000000BECD00000B
:1085A000BB000000CABF0000340000001AC2000077
:1085B00041000000D0BF00004600000072CD000066
:1085C00037000000E8C100004D00000026C2000096
:1085D0003300000014C2000052000000C4CD0000AF
:1085E0005300000000C2000055000000FAC1000066
:1085F0003600000020C2000040000000DCC1000086
:108600004200000074C000004300000086CD00005E
:108610000A0000006ECA00000700000068CA0000DF
:108620000800000086CA00002A000000DED1000019
:108630000C0000005CCA00001B00000038CA0000EB
:108640002B00000032CA00000E00000006D100001E
:108650000F000000FAD0000010000000F4D000006D
:108660001C000000EED000001100000046D1000008
:108670006000000000D10000280000004CD1000084
:108680001100000046D100006A00000040D1000047
:108690006B0000003AD10000D800000056D1000065
:1086A000390000006CCD00001800000056CA000020
:1086B0001900000050CA000016000000FCD10000A4
:1086C00017000000F6D10000D6000000C2CA00006A
:1086D0001A000000F0D10000D2000000D6C1000056
:1086E000D300000038C20000D4000000F4C1000034
:1086F000C800000098CA0000C90000009ECA00001F
:10870000CA000000A4CA0000CB000000AACA0000F2
:10871000CC000000B0CA0000CD000000B6CA0000C6
:10872000CE000000BCCA0000CF00000040D2000014
:10873000D10000000CD10000DB000000E2C100000D
:108740004F000000E4D10000FF00000008CA000054
:108750007F000000E8D00000E200000036D20000F8
:10876000BC00000060D100008700000012BD0000C6
:108770000000000000000000CE390000FFCD000026
:10878000072B00000A0800000C2A00001BFF000055
:10879000CCD10000D8E20000FFD40000335200002A
:1087A0005355000034FF0000D33500004C4E00004C
:1087B00051450000BBFF0000D24200004D370000D1
:1087C00041FF0000CBD20000D3D4000040410000A4
:1087D00046FF0000CA060000010200004709000031
:1087E00014FF0000C81800001A160000174F000000
:1087F000FFC9000003040000120F00001032000047
:1088000031FF0000D6CF0000C9C80000CACB00006D
:10881000CCCD0000CEFF0000DB430000FF000000D5
:10882000000000006040000000000000C84300009D
:1088300000000000003F0000004000001C46000057
:10884000BA9400000A0000000A0000001095000021
:108850000C0D0000682C00006C2C0000A694000099
:108860000F0000000A000000109500000A0B000035
:10887000742C0000782C00000F02000001020000A0
:108880000B010000030D0000070F0000D28B000059
:108890000500000090010000DC8B000005070000CF
:1088A000802C0000842C0000BA8B00000500000022
:1088B00090010000DC8B0000050700008C2C0000FC
:1088C000902C0000A28B0000050000009001000029
:1088D000DC8B000005070000982C00009C2C000099
:1088E0008A8B00000500000090010000DC8B000076
:1088F00005070000A42C0000A82C0000728B0000CB
:108900000500000090010000DC8B0000050700005E
:10891000B02C0000B42C00005A8B000005000000B1
:1089200090010000DC8B000005070000BC2C00005B
:10893000C02C0000F08700000A0000000A000000C0
:108940001E88000006070000C82C0000CC2C000088
:10895000F4010000640000001C860000070800000D
:10896000D02C0000D42C000000000000462C000099
:10897000257500002C250000752C000025750000D1
:10898000004700002C250000752C00002575000014
:10899000004100002C250000752C0000257500000A
:1089A0002C250000752C00002575000000440000F7
:1089B0002C250000752C0000257500002C250000DA
:1089C000752C000025750000005800002C250000C3
:1089D000750000004A3000002C250000752C0000B6
:1089E000257500002C250000752C00002575000061
:1089F000004100002C250000752C000025750000AA
:108A00002C250000750000004D2C0000257500008D
:108A10002C250000752C0000257500002C25000079
:108A2000750000004F2C0000257500002C2500006B
:108A3000752C0000257500002C2500007500000035
:108A4000522C0000257500002C250000752C00001C
:108A5000257500002C25000075000000542C000036
:108A600025750000005000002C250000752C00002A
:108A700025750000004A0000332C00002575000019
:108A8000004B00002C250000752C0000257500000F
:108A90002C25000075000000482C00002575000002
:108AA0002C250000752C0000257500002C250000E9
:108AB00075000000532C0000257500002C250000D7
:108AC00075000000562C0000257500002C250000C4
:108AD000750000004F2C0000257500002C250000BB
:108AE00075000000422C0000257500002C250000B8
:108AF000752C000025750000004400002C250000A6
:108B0000752C000025750000004500002C25000094
:108B1000752C000025750000004C00002C2500007D
:108B2000752C0000257500002C2500007500000044
:108B3000492C000025750000004A0000312C00007F
:108B4000257500002C250000752C000025750000FF
:108B50002C250000750000004A3200002C25000082
:108B6000752C000025750000004A0000352C00001F
:108B7000257500002C250000750000004E2C00001B
:108B8000257500002C250000752C000025750000BF
:108B90002C25000075000000502C000025750000F9
:108BA0002C250000752C0000257500002C250000E8
:108BB0007500000002000000F401000098080000A9
:108BC000E8030000AC0D00000B00000001320000C3
:108BD000D83200000300000001570000D832000026
:108BE0000300000002080000D8320000010000006D
:108BF00002300000D83200000100000050060000E2
:108C00003A3300000200000005010000D8320000E5
:108C100000000000500300003A3300000000000094
:108C200002100000D83200000100000002600000C5
:108C3000D83200000100000002F80000D832000025
:108C40000100000002180000D832000001000000FE
:108C5000454100003700000045410000420000008F
:108C6000454100005F300000310000000045000079
:108C7000434F000000450000435300000045000042
:108C8000475300005F000000454E0000555F0000A4
:108C90003038000000450000415F00003032000025
:108CA000004500004E5F000030310000004500002C
:108CB0004E45000000450000424100000045000014
:108CC000424D000000450000464C000000450000F9
:108CD000444B0000004F00004249000000450000E6
:108CE00045410000004500004454000000450000DC
:108CF00044490000004500004455000000450000C4
:108D0000445F000030310000004500004442000094
:108D10005F00000045460000485F0000004500007D
:108D2000424A000000450000465F0000303100006C
:108D30000045000042470000004500004F41000090
:108D40005F000000454E00004B000000454400005D
:108D500044000000454400004A5F00000045000058
:108D60004F5F000030310000004500004A4C000019
:108D70005F000000454A00005F310000325F0000E4
:108D8000004500004A5F0000315F00000045000020
:108D9000475F0000355F0000004500004C480000C0
:108DA0005F000000454900005F000000454C0000E6
:108DB000425F0000004500004A5F0000325F000093
:108DC000004500004A4200005F000000454A0000E4
:108DD0005F310000340000004F42000048000000F6
:108DE00045420000490000004541000052000000DB
:108DF000454B00004D000000454B0000324D000087
:108E0000004500004C5F0000325F0000004500009C
:108E10004C5F0000335F0000004F0000425F000025
:108E20003031000000450000495F000030000000C4
:108E3000454400005F30000032000000454400005F
:108E40005F30000034000000454500005F30000046
:108E5000310000004542000045000000454200008E
:108E6000430000000143000000410000004A0000F0
:108E70002C300000004A00002C310000005200009D
:108E800030000000523100000000000007800000A8
:108E9000E23C0000058000000000000007800000A8
:108EA000E23C000005000000000000000780000018
:108EB000E23C000004800000000000000780000089
:108EC000E23C000004000000000000007800000008
:108ED000E23C000078000000000000007800000084
:108EE000E23C00007000000000000000780000007C
:108EF000E23C000068000000000000007800000074
:108F0000E23C00006000000000000000780000006B
:108F1000E23C000058000000000000007800000063
:108F2000E23C00005000000000000000780000005B
:108F3000E23C000048000000000000007800000053
:108F4000E23C00004000000000000000007800004B
:108F5000E23C00000070000000000000007800000B
:108F6000E23C000000680000000000000078000003
:108F7000E23C0000006000000000000000780000FB
:108F8000E23C0000005800000000000000780000F3
:108F9000E23C0000005000000000000000780000EB
:108FA000E23C0000004800000000000000780000E3
:108FB000E23C00000040000000000000000700004C
:108FC000E23C000000070000000000000007000075
:108FD000E23C000000060000000000000007000066
:108FE000E23C000000050000000000000007000057
:108FF000E23C0000000400000000000080000000CF
:10900000EA3C000040000000EA3C000020000000B4
:10901000EA3C000010000000EA3C000008000000EC
:10902000EA3C000004000000EA3C000002000000EE
:10903000EA3C000001000000EA3C000001000000E2
:109040000000000000800000EA3C0000004000003A
:10905000EA3C000000200000EA3C00000010000094
:10906000EA3C000000080000EA3C000000040000A8
:10907000EA3C000000020000EA3C000000010000A1
:10908000EA3C000080000000E23C0000800000009C
:109090000000000080000000DA3C000080000000BA
:1090A0000000000040000000DA3C0000400000002A
:1090B0000000000020000000DA3C0000200000005A
:1090C0000000000010000000DA3C0000100000006A
:1090D0000000000008000000DA3C0000080000006A
:1090E0000000000001000000DA3C00000100000068
:1090F0000000000000800000DA3C0000008000005A
:109100000000000000400000DA3C000000400000C9
:109110000000000000200000DA3C00000010000009
:10912000DA3C000000080000DA3C00000004000007
:10913000DA3C000000020000DA3C00000001000000
:10914000DA3C0000002000005854000020460000D7
:10915000616900006C0000000203000001040000CF
:10916000E8030000E8030000345B00004B4C000003
:10917000C42D0000C82D000000000000F001000018
:10918000F74500005850000052450000534F0000C2
:10919000F50100008000000081000000F4050000DF
:1091A0008000000081000000FF01000000000000BE
:1091B00000000000000000000000000000000000AF
:1091C000000000000000000000000000000000009F
:1091D000000000000000000000000000000000008F
:1091E000000000000000000000000000000000007F
:1091F000000000000000000000000000000000006F
:10920000000000000000000000000000000000005E
:10921000000000000000000000000000000000004E
:10922000000000000000000000000000000000003E
:10923000000000000000000000000000000000002E
:10924000000000000000000000000000000000001E
:10925000000000000000000000000000000000000E
:1092600000000000000000000000000000000000FE
:1092700000000000000000000000000000000000EE
:1092800000000000000000000000000000000000DE
:1092900000000000000000000000000000000000CE
:1092A00000000000000000000000000000000000BE
:1092B000000000000000000000000000452C00003D
:1092C000257500002C250000752C00002575000078
:1092D0002C250000750000006D730000462C000076
:1092E000257500002C250000752C00002575000058
:1092F000006D00006E4600002C250000752C00005B
:10930000257500002C250000752C00002575000037
:10931000004A00002C250000750000004B2C0000C6
:1093200025750000005300002C250000752C00005E
:10933000257500002C25000075000000522C00004F
:1093400031000000522C0000300000004F2C0000C3
:10935000257500002C25000075000000412C000040
:1093600025750000004300002C250000750000005A
:10937000422C000025750000005600002C2500003E
:10938000752C0000257500002C25000075000000DC
:10939000482C0000257500002C25000075000000F9
:1093A00049000000522C0000320000004E2C00004A
:1093B000257500002C250000752C00002575000087
:1093C000004100002C250000752C000025750000D0
:1093D000004600002C250000752C000025750000BB
:1093E000005000002C25000075000000512C0000EA
:1093F00025750000000000000000000000000000D3
:10940000C02400000000000000000000C424000090
:109410000000000000000000C82400001B0700003E
:109420001C070000CC240000190700001A070000E8
:10943000D02400000503000006030000D42400002F
:109440000203000003030000D8240000D906000036
:10945000DA060000DC240000390100003A010000B7
:10946000E02400008E0100008F010000E4240000D1
:109470005601000057010000E824000034010000FC
:1094800035010000EC240000200100002101000053
:10949000F0240000EA000000EB000000F4240000CB
:1094A000A0000000A1000000C82300009D000000F3
:1094B0009E000000F8240000A5000000A6000000A7
:1094C000FC240000AA000000AB0000000025000002
:1094D00092000000930000000425000098000000A6
:1094E00099000000082500007B0000007C000000BF
:1094F0000C250000820000007E00000080000000BB
:10950000810000007F0000000000000083000000D8
:1095100084000000102500008D0000008E00000077
:1095200014250000900000009100000000000000E1
:109530003F0000004000000018250000410000002E
:10954000420000001C250000470000004800000009
:1095500020250000450000004600000024250000F2
:1095600043000000440000002825000049000000DE
:109570004A0000002C2500004B0000004C000000B9
:10958000302500003D0000003E00000034250000B2
:109590002020000020000000522C000033000000BA
:1095A000422C0000312C0000257500002C6F0000BB
:1095B0006B000000422C0000322C000025750000DA
:1095C0002C6F00006B000000422C0000312C0000CA
:1095D000257500002C580000004200002C320000CD
:1095E0002C250000752C000058000000412C0000C4
:1095F000332C0000257500002C6F00006B0000006C
:10960000412C0000332C0000257500002C58000070
:10961000004200002C3300002C250000752C0000B7
:109620006F6B0000004200002C3300002C2500006E
:10963000752C000058000000432C0000332C000063
:10964000257500002C580000004300002C3300005A
:109650002C250000752C00006F6B000000410000FD
:109660002C3200002C250000752C00006F6B0000D0
:10967000004100002C3200002C250000752C000059
:1096800058000000432C0000322C0000257500001B
:109690002C580000004300002C3200002C25000054
:1096A000752C00006F6B0000004100002C310000A1
:1096B0002C250000752C00006F6B0000004100009D
:1096C0002C3100002C250000752C000058000000F3
:1096D000432C0000312C0000257500002C580000A0
:1096E000004300002C3100002C250000752C0000E8
:1096F0006F6B000000000000472D000035340000B3
:109700003620000044000000472D000035330000E3
:109710003520000044000000313100002F300000EF
:10972000312F0000323000003234000020310000C0
:10973000333A0000303500000037000036340000B6
:1097400038320000002000003130000030200000DE
:109750002500000025000000200000003C3D000026
:109760003D0000004445000058200000003D00007E
:109770003D3E0000002000002800000029000000FD
:109780004C6100006E670000756100006A650000B2
:1097900020460000696C0000652000004572000052
:1097A000726F0000720000005570000064610000DC
:1097B00074650000204C0000616E000067750000B9
:1097C0006167000065200000466900006C650000CC
:1097D00000000000202A00002A2D00002A2A000094
:1097E0002D2A00002A0000002D000000202A000081
:1097F0002A3A00002A2A0000003A00000020000057
:109800002020000020200000202000002020000058
:109810002020000020200000202000002000000068
